{
  "_format": "hh-sol-artifact-1",
  "contractName": "Currency",
  "sourceName": "contracts/Currency.sol",
  "abi": [
    {
      "inputs": [],
      "stateMutability": "nonpayable",
      "type": "constructor"
    },
    {
      "anonymous": false,
      "inputs": [
        {
          "indexed": true,
          "internalType": "address",
          "name": "owner",
          "type": "address"
        },
        {
          "indexed": true,
          "internalType": "address",
          "name": "spender",
          "type": "address"
        },
        {
          "indexed": false,
          "internalType": "uint256",
          "name": "value",
          "type": "uint256"
        }
      ],
      "name": "Approval",
      "type": "event"
    },
    {
      "anonymous": false,
      "inputs": [
        {
          "indexed": true,
          "internalType": "bytes32",
          "name": "role",
          "type": "bytes32"
        },
        {
          "indexed": true,
          "internalType": "bytes32",
          "name": "previousAdminRole",
          "type": "bytes32"
        },
        {
          "indexed": true,
          "internalType": "bytes32",
          "name": "newAdminRole",
          "type": "bytes32"
        }
      ],
      "name": "RoleAdminChanged",
      "type": "event"
    },
    {
      "anonymous": false,
      "inputs": [
        {
          "indexed": true,
          "internalType": "bytes32",
          "name": "role",
          "type": "bytes32"
        },
        {
          "indexed": true,
          "internalType": "address",
          "name": "account",
          "type": "address"
        },
        {
          "indexed": true,
          "internalType": "address",
          "name": "sender",
          "type": "address"
        }
      ],
      "name": "RoleGranted",
      "type": "event"
    },
    {
      "anonymous": false,
      "inputs": [
        {
          "indexed": true,
          "internalType": "bytes32",
          "name": "role",
          "type": "bytes32"
        },
        {
          "indexed": true,
          "internalType": "address",
          "name": "account",
          "type": "address"
        },
        {
          "indexed": true,
          "internalType": "address",
          "name": "sender",
          "type": "address"
        }
      ],
      "name": "RoleRevoked",
      "type": "event"
    },
    {
      "anonymous": false,
      "inputs": [
        {
          "indexed": true,
          "internalType": "address",
          "name": "from",
          "type": "address"
        },
        {
          "indexed": true,
          "internalType": "address",
          "name": "to",
          "type": "address"
        },
        {
          "indexed": false,
          "internalType": "uint256",
          "name": "value",
          "type": "uint256"
        }
      ],
      "name": "Transfer",
      "type": "event"
    },
    {
      "inputs": [],
      "name": "DEFAULT_ADMIN_ROLE",
      "outputs": [
        {
          "internalType": "bytes32",
          "name": "",
          "type": "bytes32"
        }
      ],
      "stateMutability": "view",
      "type": "function"
    },
    {
      "inputs": [],
      "name": "DOMAIN_SEPARATOR",
      "outputs": [
        {
          "internalType": "bytes32",
          "name": "",
          "type": "bytes32"
        }
      ],
      "stateMutability": "view",
      "type": "function"
    },
    {
      "inputs": [
        {
          "internalType": "address",
          "name": "owner",
          "type": "address"
        },
        {
          "internalType": "address",
          "name": "spender",
          "type": "address"
        }
      ],
      "name": "allowance",
      "outputs": [
        {
          "internalType": "uint256",
          "name": "",
          "type": "uint256"
        }
      ],
      "stateMutability": "view",
      "type": "function"
    },
    {
      "inputs": [
        {
          "internalType": "address",
          "name": "spender",
          "type": "address"
        },
        {
          "internalType": "uint256",
          "name": "amount",
          "type": "uint256"
        }
      ],
      "name": "approve",
      "outputs": [
        {
          "internalType": "bool",
          "name": "",
          "type": "bool"
        }
      ],
      "stateMutability": "nonpayable",
      "type": "function"
    },
    {
      "inputs": [
        {
          "internalType": "address",
          "name": "account",
          "type": "address"
        }
      ],
      "name": "balanceOf",
      "outputs": [
        {
          "internalType": "uint256",
          "name": "",
          "type": "uint256"
        }
      ],
      "stateMutability": "view",
      "type": "function"
    },
    {
      "inputs": [
        {
          "internalType": "uint256",
          "name": "amount",
          "type": "uint256"
        }
      ],
      "name": "burn",
      "outputs": [],
      "stateMutability": "nonpayable",
      "type": "function"
    },
    {
      "inputs": [
        {
          "internalType": "address",
          "name": "account",
          "type": "address"
        },
        {
          "internalType": "uint256",
          "name": "amount",
          "type": "uint256"
        }
      ],
      "name": "burnFrom",
      "outputs": [],
      "stateMutability": "nonpayable",
      "type": "function"
    },
    {
      "inputs": [],
      "name": "decimals",
      "outputs": [
        {
          "internalType": "uint8",
          "name": "",
          "type": "uint8"
        }
      ],
      "stateMutability": "view",
      "type": "function"
    },
    {
      "inputs": [
        {
          "internalType": "address",
          "name": "spender",
          "type": "address"
        },
        {
          "internalType": "uint256",
          "name": "subtractedValue",
          "type": "uint256"
        }
      ],
      "name": "decreaseAllowance",
      "outputs": [
        {
          "internalType": "bool",
          "name": "",
          "type": "bool"
        }
      ],
      "stateMutability": "nonpayable",
      "type": "function"
    },
    {
      "inputs": [
        {
          "internalType": "bytes32",
          "name": "role",
          "type": "bytes32"
        }
      ],
      "name": "getRoleAdmin",
      "outputs": [
        {
          "internalType": "bytes32",
          "name": "",
          "type": "bytes32"
        }
      ],
      "stateMutability": "view",
      "type": "function"
    },
    {
      "inputs": [
        {
          "internalType": "bytes32",
          "name": "role",
          "type": "bytes32"
        },
        {
          "internalType": "address",
          "name": "account",
          "type": "address"
        }
      ],
      "name": "grantRole",
      "outputs": [],
      "stateMutability": "nonpayable",
      "type": "function"
    },
    {
      "inputs": [
        {
          "internalType": "bytes32",
          "name": "role",
          "type": "bytes32"
        },
        {
          "internalType": "address",
          "name": "account",
          "type": "address"
        }
      ],
      "name": "hasRole",
      "outputs": [
        {
          "internalType": "bool",
          "name": "",
          "type": "bool"
        }
      ],
      "stateMutability": "view",
      "type": "function"
    },
    {
      "inputs": [
        {
          "internalType": "address",
          "name": "spender",
          "type": "address"
        },
        {
          "internalType": "uint256",
          "name": "addedValue",
          "type": "uint256"
        }
      ],
      "name": "increaseAllowance",
      "outputs": [
        {
          "internalType": "bool",
          "name": "",
          "type": "bool"
        }
      ],
      "stateMutability": "nonpayable",
      "type": "function"
    },
    {
      "inputs": [],
      "name": "mint",
      "outputs": [],
      "stateMutability": "nonpayable",
      "type": "function"
    },
    {
      "inputs": [],
      "name": "name",
      "outputs": [
        {
          "internalType": "string",
          "name": "",
          "type": "string"
        }
      ],
      "stateMutability": "view",
      "type": "function"
    },
    {
      "inputs": [
        {
          "internalType": "address",
          "name": "owner",
          "type": "address"
        }
      ],
      "name": "nonces",
      "outputs": [
        {
          "internalType": "uint256",
          "name": "",
          "type": "uint256"
        }
      ],
      "stateMutability": "view",
      "type": "function"
    },
    {
      "inputs": [
        {
          "internalType": "address",
          "name": "owner",
          "type": "address"
        },
        {
          "internalType": "address",
          "name": "spender",
          "type": "address"
        },
        {
          "internalType": "uint256",
          "name": "value",
          "type": "uint256"
        },
        {
          "internalType": "uint256",
          "name": "deadline",
          "type": "uint256"
        },
        {
          "internalType": "uint8",
          "name": "v",
          "type": "uint8"
        },
        {
          "internalType": "bytes32",
          "name": "r",
          "type": "bytes32"
        },
        {
          "internalType": "bytes32",
          "name": "s",
          "type": "bytes32"
        }
      ],
      "name": "permit",
      "outputs": [],
      "stateMutability": "nonpayable",
      "type": "function"
    },
    {
      "inputs": [
        {
          "internalType": "bytes32",
          "name": "role",
          "type": "bytes32"
        },
        {
          "internalType": "address",
          "name": "account",
          "type": "address"
        }
      ],
      "name": "renounceRole",
      "outputs": [],
      "stateMutability": "nonpayable",
      "type": "function"
    },
    {
      "inputs": [
        {
          "internalType": "bytes32",
          "name": "role",
          "type": "bytes32"
        },
        {
          "internalType": "address",
          "name": "account",
          "type": "address"
        }
      ],
      "name": "revokeRole",
      "outputs": [],
      "stateMutability": "nonpayable",
      "type": "function"
    },
    {
      "inputs": [
        {
          "internalType": "bytes4",
          "name": "interfaceId",
          "type": "bytes4"
        }
      ],
      "name": "supportsInterface",
      "outputs": [
        {
          "internalType": "bool",
          "name": "",
          "type": "bool"
        }
      ],
      "stateMutability": "view",
      "type": "function"
    },
    {
      "inputs": [],
      "name": "symbol",
      "outputs": [
        {
          "internalType": "string",
          "name": "",
          "type": "string"
        }
      ],
      "stateMutability": "view",
      "type": "function"
    },
    {
      "inputs": [],
      "name": "totalSupply",
      "outputs": [
        {
          "internalType": "uint256",
          "name": "",
          "type": "uint256"
        }
      ],
      "stateMutability": "view",
      "type": "function"
    },
    {
      "inputs": [
        {
          "internalType": "address",
          "name": "to",
          "type": "address"
        },
        {
          "internalType": "uint256",
          "name": "amount",
          "type": "uint256"
        }
      ],
      "name": "transfer",
      "outputs": [
        {
          "internalType": "bool",
          "name": "",
          "type": "bool"
        }
      ],
      "stateMutability": "nonpayable",
      "type": "function"
    },
    {
      "inputs": [
        {
          "internalType": "address",
          "name": "from",
          "type": "address"
        },
        {
          "internalType": "address",
          "name": "to",
          "type": "address"
        },
        {
          "internalType": "uint256",
          "name": "amount",
          "type": "uint256"
        }
      ],
      "name": "transferFrom",
      "outputs": [
        {
          "internalType": "bool",
          "name": "",
          "type": "bool"
        }
      ],
      "stateMutability": "nonpayable",
      "type": "function"
    }
  ],
  "bytecode": "0x6101406040523480156200001257600080fd5b506040518060400160405280600881526020017f5374726f6e676572000000000000000000000000000000000000000000000000815250806040518060400160405280600181526020017f31000000000000000000000000000000000000000000000000000000000000008152506040518060400160405280600881526020017f4d494949204c54440000000000000000000000000000000000000000000000008152506040518060400160405280600481526020017f4d494949000000000000000000000000000000000000000000000000000000008152508160039080519060200190620001049291906200055a565b5080600490805190602001906200011d9291906200055a565b50505060008280519060200120905060008280519060200120905060007f8b73c3c69bb8fe3d512ecc4cf759cc79239f7b179b0ffacaa9a75d522b39400f90508260e081815250508161010081815250504660a08181525050620001898184846200022d60201b60201c565b608081815250503073ffffffffffffffffffffffffffffffffffffffff1660c08173ffffffffffffffffffffffffffffffffffffffff16815250508061012081815250505050505050506200021233620001e86200026960201b60201c565b600a620001f69190620007a4565b620f4240620002069190620007f5565b6200027260201b60201c565b620002276000801b33620003eb60201b60201c565b62000a86565b600083838346306040516020016200024a959493929190620008c7565b6040516020818303038152906040528051906020012090509392505050565b60006012905090565b600073ffffffffffffffffffffffffffffffffffffffff168273ffffffffffffffffffffffffffffffffffffffff161415620002e5576040517f08c379a0000000000000000000000000000000000000000000000000000000008152600401620002dc9062000985565b60405180910390fd5b620002f960008383620004dd60201b60201c565b80600260008282546200030d9190620009a7565b92505081905550806000808473ffffffffffffffffffffffffffffffffffffffff1673ffffffffffffffffffffffffffffffffffffffff1681526020019081526020016000206000828254620003649190620009a7565b925050819055508173ffffffffffffffffffffffffffffffffffffffff16600073ffffffffffffffffffffffffffffffffffffffff167fddf252ad1be2c89b69c2b068fc378daa952ba7f163c4a11628f55a4df523b3ef83604051620003cb919062000a04565b60405180910390a3620003e760008383620004e260201b60201c565b5050565b620003fd8282620004e760201b60201c565b620004d95760016007600084815260200190815260200160002060000160008373ffffffffffffffffffffffffffffffffffffffff1673ffffffffffffffffffffffffffffffffffffffff16815260200190815260200160002060006101000a81548160ff0219169083151502179055506200047e6200055260201b60201c565b73ffffffffffffffffffffffffffffffffffffffff168173ffffffffffffffffffffffffffffffffffffffff16837f2f8788117e7eff1d82e926ec794901d17c78024a50270940304540a733656f0d60405160405180910390a45b5050565b505050565b505050565b60006007600084815260200190815260200160002060000160008373ffffffffffffffffffffffffffffffffffffffff1673ffffffffffffffffffffffffffffffffffffffff16815260200190815260200160002060009054906101000a900460ff16905092915050565b600033905090565b828054620005689062000a50565b90600052602060002090601f0160209004810192826200058c5760008555620005d8565b82601f10620005a757805160ff1916838001178555620005d8565b82800160010185558215620005d8579182015b82811115620005d7578251825591602001919060010190620005ba565b5b509050620005e79190620005eb565b5090565b5b8082111562000606576000816000905550600101620005ec565b5090565b7f4e487b7100000000000000000000000000000000000000000000000000000000600052601160045260246000fd5b60008160011c9050919050565b6000808291508390505b6001851115620006985780860481111562000670576200066f6200060a565b5b6001851615620006805780820291505b8081029050620006908562000639565b945062000650565b94509492505050565b600082620006b3576001905062000786565b81620006c3576000905062000786565b8160018114620006dc5760028114620006e7576200071d565b600191505062000786565b60ff841115620006fc57620006fb6200060a565b5b8360020a9150848211156200071657620007156200060a565b5b5062000786565b5060208310610133831016604e8410600b8410161715620007575782820a9050838111156200075157620007506200060a565b5b62000786565b62000766848484600162000646565b9250905081840481111562000780576200077f6200060a565b5b81810290505b9392505050565b6000819050919050565b600060ff82169050919050565b6000620007b1826200078d565b9150620007be8362000797565b9250620007ed7fffffffffffffffffffffffffffffffffffffffffffffffffffffffffffffffff8484620006a1565b905092915050565b600062000802826200078d565b91506200080f836200078d565b9250817fffffffffffffffffffffffffffffffffffffffffffffffffffffffffffffffff04831182151516156200084b576200084a6200060a565b5b828202905092915050565b6000819050919050565b6200086b8162000856565b82525050565b6200087c816200078d565b82525050565b600073ffffffffffffffffffffffffffffffffffffffff82169050919050565b6000620008af8262000882565b9050919050565b620008c181620008a2565b82525050565b600060a082019050620008de600083018862000860565b620008ed602083018762000860565b620008fc604083018662000860565b6200090b606083018562000871565b6200091a6080830184620008b6565b9695505050505050565b600082825260208201905092915050565b7f45524332303a206d696e7420746f20746865207a65726f206164647265737300600082015250565b60006200096d601f8362000924565b91506200097a8262000935565b602082019050919050565b60006020820190508181036000830152620009a0816200095e565b9050919050565b6000620009b4826200078d565b9150620009c1836200078d565b9250827fffffffffffffffffffffffffffffffffffffffffffffffffffffffffffffffff03821115620009f957620009f86200060a565b5b828201905092915050565b600060208201905062000a1b600083018462000871565b92915050565b7f4e487b7100000000000000000000000000000000000000000000000000000000600052602260045260246000fd5b6000600282049050600182168062000a6957607f821691505b6020821081141562000a805762000a7f62000a21565b5b50919050565b60805160a05160c05160e051610100516101205161334462000ad6600039600061141b0152600061145d0152600061143c01526000611371015260006113c7015260006113f001526133446000f3fe608060405234801561001057600080fd5b50600436106101585760003560e01c806342966c68116100c3578063a217fddf1161007c578063a217fddf146103ed578063a457c2d71461040b578063a9059cbb1461043b578063d505accf1461046b578063d547741f14610487578063dd62ed3e146104a357610158565b806342966c681461030757806370a082311461032357806379cc6790146103535780637ecebe001461036f57806391d148541461039f57806395d89b41146103cf57610158565b8063248a9ca311610115578063248a9ca3146102335780632f2ff15d14610263578063313ce5671461027f5780633644e5151461029d57806336568abe146102bb57806339509351146102d757610158565b806301ffc9a71461015d57806306fdde031461018d578063095ea7b3146101ab5780631249c58b146101db57806318160ddd146101e557806323b872dd14610203575b600080fd5b61017760048036038101906101729190611e96565b6104d3565b6040516101849190611ede565b60405180910390f35b61019561054d565b6040516101a29190611f92565b60405180910390f35b6101c560048036038101906101c09190612048565b6105df565b6040516101d29190611ede565b60405180910390f35b6101e3610602565b005b6101ed61062e565b6040516101fa9190612097565b60405180910390f35b61021d600480360381019061021891906120b2565b610638565b60405161022a9190611ede565b60405180910390f35b61024d6004803603810190610248919061213b565b610667565b60405161025a9190612177565b60405180910390f35b61027d60048036038101906102789190612192565b610687565b005b6102876106a8565b60405161029491906121ee565b60405180910390f35b6102a56106b1565b6040516102b29190612177565b60405180910390f35b6102d560048036038101906102d09190612192565b6106c0565b005b6102f160048036038101906102ec9190612048565b610743565b6040516102fe9190611ede565b60405180910390f35b610321600480360381019061031c9190612209565b61077a565b005b61033d60048036038101906103389190612236565b61078e565b60405161034a9190612097565b60405180910390f35b61036d60048036038101906103689190612048565b6107d6565b005b61038960048036038101906103849190612236565b6107f6565b6040516103969190612097565b60405180910390f35b6103b960048036038101906103b49190612192565b610846565b6040516103c69190611ede565b60405180910390f35b6103d76108b1565b6040516103e49190611f92565b60405180910390f35b6103f5610943565b6040516104029190612177565b60405180910390f35b61042560048036038101906104209190612048565b61094a565b6040516104329190611ede565b60405180910390f35b61045560048036038101906104509190612048565b6109c1565b6040516104629190611ede565b60405180910390f35b6104856004803603810190610480919061228f565b6109e4565b005b6104a1600480360381019061049c9190612192565b610b26565b005b6104bd60048036038101906104b89190612331565b610b47565b6040516104ca9190612097565b60405180910390f35b60007f7965db0b000000000000000000000000000000000000000000000000000000007bffffffffffffffffffffffffffffffffffffffffffffffffffffffff1916827bffffffffffffffffffffffffffffffffffffffffffffffffffffffff19161480610546575061054582610bce565b5b9050919050565b60606003805461055c906123a0565b80601f0160208091040260200160405190810160405280929190818152602001828054610588906123a0565b80156105d55780601f106105aa576101008083540402835291602001916105d5565b820191906000526020600020905b8154815290600101906020018083116105b857829003601f168201915b5050505050905090565b6000806105ea610c38565b90506105f7818585610c40565b600191505092915050565b61062c3361060e6106a8565b600a61061a9190612534565b6103e8610627919061257f565b610e0b565b565b6000600254905090565b600080610643610c38565b9050610650858285610f6b565b61065b858585610ff7565b60019150509392505050565b600060076000838152602001908152602001600020600101549050919050565b61069082610667565b61069981611278565b6106a3838361128c565b505050565b60006012905090565b60006106bb61136d565b905090565b6106c8610c38565b73ffffffffffffffffffffffffffffffffffffffff168173ffffffffffffffffffffffffffffffffffffffff1614610735576040517f08c379a000000000000000000000000000000000000000000000000000000000815260040161072c9061264b565b60405180910390fd5b61073f8282611487565b5050565b60008061074e610c38565b905061076f8185856107608589610b47565b61076a919061266b565b610c40565b600191505092915050565b61078b610785610c38565b82611569565b50565b60008060008373ffffffffffffffffffffffffffffffffffffffff1673ffffffffffffffffffffffffffffffffffffffff168152602001908152602001600020549050919050565b6107e8826107e2610c38565b83610f6b565b6107f28282611569565b5050565b600061083f600560008473ffffffffffffffffffffffffffffffffffffffff1673ffffffffffffffffffffffffffffffffffffffff168152602001908152602001600020611740565b9050919050565b60006007600084815260200190815260200160002060000160008373ffffffffffffffffffffffffffffffffffffffff1673ffffffffffffffffffffffffffffffffffffffff16815260200190815260200160002060009054906101000a900460ff16905092915050565b6060600480546108c0906123a0565b80601f01602080910402602001604051908101604052809291908181526020018280546108ec906123a0565b80156109395780601f1061090e57610100808354040283529160200191610939565b820191906000526020600020905b81548152906001019060200180831161091c57829003601f168201915b5050505050905090565b6000801b81565b600080610955610c38565b905060006109638286610b47565b9050838110156109a8576040517f08c379a000000000000000000000000000000000000000000000000000000000815260040161099f90612733565b60405180910390fd5b6109b58286868403610c40565b60019250505092915050565b6000806109cc610c38565b90506109d9818585610ff7565b600191505092915050565b83421115610a27576040517f08c379a0000000000000000000000000000000000000000000000000000000008152600401610a1e9061279f565b60405180910390fd5b60007f6e71edae12b1b97f4d1f60370fef10105fa2faae0126114a169c64845d6126c9888888610a568c61174e565b89604051602001610a6c969594939291906127ce565b6040516020818303038152906040528051906020012090506000610a8f826117ac565b90506000610a9f828787876117c6565b90508973ffffffffffffffffffffffffffffffffffffffff168173ffffffffffffffffffffffffffffffffffffffff1614610b0f576040517f08c379a0000000000000000000000000000000000000000000000000000000008152600401610b069061287b565b60405180910390fd5b610b1a8a8a8a610c40565b50505050505050505050565b610b2f82610667565b610b3881611278565b610b428383611487565b505050565b6000600160008473ffffffffffffffffffffffffffffffffffffffff1673ffffffffffffffffffffffffffffffffffffffff16815260200190815260200160002060008373ffffffffffffffffffffffffffffffffffffffff1673ffffffffffffffffffffffffffffffffffffffff16815260200190815260200160002054905092915050565b60007f01ffc9a7000000000000000000000000000000000000000000000000000000007bffffffffffffffffffffffffffffffffffffffffffffffffffffffff1916827bffffffffffffffffffffffffffffffffffffffffffffffffffffffff1916149050919050565b600033905090565b600073ffffffffffffffffffffffffffffffffffffffff168373ffffffffffffffffffffffffffffffffffffffff161415610cb0576040517f08c379a0000000000000000000000000000000000000000000000000000000008152600401610ca79061290d565b60405180910390fd5b600073ffffffffffffffffffffffffffffffffffffffff168273ffffffffffffffffffffffffffffffffffffffff161415610d20576040517f08c379a0000000000000000000000000000000000000000000000000000000008152600401610d179061299f565b60405180910390fd5b80600160008573ffffffffffffffffffffffffffffffffffffffff1673ffffffffffffffffffffffffffffffffffffffff16815260200190815260200160002060008473ffffffffffffffffffffffffffffffffffffffff1673ffffffffffffffffffffffffffffffffffffffff168152602001908152602001600020819055508173ffffffffffffffffffffffffffffffffffffffff168373ffffffffffffffffffffffffffffffffffffffff167f8c5be1e5ebec7d5bd14f71427d1e84f3dd0314c0f7b2291e5b200ac8c7c3b92583604051610dfe9190612097565b60405180910390a3505050565b600073ffffffffffffffffffffffffffffffffffffffff168273ffffffffffffffffffffffffffffffffffffffff161415610e7b576040517f08c379a0000000000000000000000000000000000000000000000000000000008152600401610e7290612a0b565b60405180910390fd5b610e87600083836117f1565b8060026000828254610e99919061266b565b92505081905550806000808473ffffffffffffffffffffffffffffffffffffffff1673ffffffffffffffffffffffffffffffffffffffff1681526020019081526020016000206000828254610eee919061266b565b925050819055508173ffffffffffffffffffffffffffffffffffffffff16600073ffffffffffffffffffffffffffffffffffffffff167fddf252ad1be2c89b69c2b068fc378daa952ba7f163c4a11628f55a4df523b3ef83604051610f539190612097565b60405180910390a3610f67600083836117f6565b5050565b6000610f778484610b47565b90507fffffffffffffffffffffffffffffffffffffffffffffffffffffffffffffffff8114610ff15781811015610fe3576040517f08c379a0000000000000000000000000000000000000000000000000000000008152600401610fda90612a77565b60405180910390fd5b610ff08484848403610c40565b5b50505050565b600073ffffffffffffffffffffffffffffffffffffffff168373ffffffffffffffffffffffffffffffffffffffff161415611067576040517f08c379a000000000000000000000000000000000000000000000000000000000815260040161105e90612b09565b60405180910390fd5b600073ffffffffffffffffffffffffffffffffffffffff168273ffffffffffffffffffffffffffffffffffffffff1614156110d7576040517f08c379a00000000000000000000000000000000000000000000000000000000081526004016110ce90612b9b565b60405180910390fd5b6110e28383836117f1565b60008060008573ffffffffffffffffffffffffffffffffffffffff1673ffffffffffffffffffffffffffffffffffffffff16815260200190815260200160002054905081811015611168576040517f08c379a000000000000000000000000000000000000000000000000000000000815260040161115f90612c2d565b60405180910390fd5b8181036000808673ffffffffffffffffffffffffffffffffffffffff1673ffffffffffffffffffffffffffffffffffffffff16815260200190815260200160002081905550816000808573ffffffffffffffffffffffffffffffffffffffff1673ffffffffffffffffffffffffffffffffffffffff16815260200190815260200160002060008282546111fb919061266b565b925050819055508273ffffffffffffffffffffffffffffffffffffffff168473ffffffffffffffffffffffffffffffffffffffff167fddf252ad1be2c89b69c2b068fc378daa952ba7f163c4a11628f55a4df523b3ef8460405161125f9190612097565b60405180910390a36112728484846117f6565b50505050565b61128981611284610c38565b6117fb565b50565b6112968282610846565b6113695760016007600084815260200190815260200160002060000160008373ffffffffffffffffffffffffffffffffffffffff1673ffffffffffffffffffffffffffffffffffffffff16815260200190815260200160002060006101000a81548160ff02191690831515021790555061130e610c38565b73ffffffffffffffffffffffffffffffffffffffff168173ffffffffffffffffffffffffffffffffffffffff16837f2f8788117e7eff1d82e926ec794901d17c78024a50270940304540a733656f0d60405160405180910390a45b5050565b60007f000000000000000000000000000000000000000000000000000000000000000073ffffffffffffffffffffffffffffffffffffffff163073ffffffffffffffffffffffffffffffffffffffff161480156113e957507f000000000000000000000000000000000000000000000000000000000000000046145b15611416577f00000000000000000000000000000000000000000000000000000000000000009050611484565b6114817f00000000000000000000000000000000000000000000000000000000000000007f00000000000000000000000000000000000000000000000000000000000000007f0000000000000000000000000000000000000000000000000000000000000000611898565b90505b90565b6114918282610846565b156115655760006007600084815260200190815260200160002060000160008373ffffffffffffffffffffffffffffffffffffffff1673ffffffffffffffffffffffffffffffffffffffff16815260200190815260200160002060006101000a81548160ff02191690831515021790555061150a610c38565b73ffffffffffffffffffffffffffffffffffffffff168173ffffffffffffffffffffffffffffffffffffffff16837ff6391f5c32d9c69d2a47ea670b442974b53935d1edc7fd64eb21e047a839171b60405160405180910390a45b5050565b600073ffffffffffffffffffffffffffffffffffffffff168273ffffffffffffffffffffffffffffffffffffffff1614156115d9576040517f08c379a00000000000000000000000000000000000000000000000000000000081526004016115d090612cbf565b60405180910390fd5b6115e5826000836117f1565b60008060008473ffffffffffffffffffffffffffffffffffffffff1673ffffffffffffffffffffffffffffffffffffffff1681526020019081526020016000205490508181101561166b576040517f08c379a000000000000000000000000000000000000000000000000000000000815260040161166290612d51565b60405180910390fd5b8181036000808573ffffffffffffffffffffffffffffffffffffffff1673ffffffffffffffffffffffffffffffffffffffff1681526020019081526020016000208190555081600260008282546116c29190612d71565b92505081905550600073ffffffffffffffffffffffffffffffffffffffff168373ffffffffffffffffffffffffffffffffffffffff167fddf252ad1be2c89b69c2b068fc378daa952ba7f163c4a11628f55a4df523b3ef846040516117279190612097565b60405180910390a361173b836000846117f6565b505050565b600081600001549050919050565b600080600560008473ffffffffffffffffffffffffffffffffffffffff1673ffffffffffffffffffffffffffffffffffffffff168152602001908152602001600020905061179b81611740565b91506117a6816118d2565b50919050565b60006117bf6117b961136d565b836118e8565b9050919050565b60008060006117d78787878761191b565b915091506117e481611a28565b8192505050949350505050565b505050565b505050565b6118058282610846565b6118945761182a8173ffffffffffffffffffffffffffffffffffffffff166014611bfd565b6118388360001c6020611bfd565b604051602001611849929190612e79565b6040516020818303038152906040526040517f08c379a000000000000000000000000000000000000000000000000000000000815260040161188b9190611f92565b60405180910390fd5b5050565b600083838346306040516020016118b3959493929190612eb3565b6040516020818303038152906040528051906020012090509392505050565b6001816000016000828254019250508190555050565b600082826040516020016118fd929190612f73565b60405160208183030381529060405280519060200120905092915050565b6000807f7fffffffffffffffffffffffffffffff5d576e7357a4501ddfe92f46681b20a08360001c1115611956576000600391509150611a1f565b601b8560ff161415801561196e5750601c8560ff1614155b15611980576000600491509150611a1f565b6000600187878787604051600081526020016040526040516119a59493929190612faa565b6020604051602081039080840390855afa1580156119c7573d6000803e3d6000fd5b505050602060405103519050600073ffffffffffffffffffffffffffffffffffffffff168173ffffffffffffffffffffffffffffffffffffffff161415611a1657600060019250925050611a1f565b80600092509250505b94509492505050565b60006004811115611a3c57611a3b612fef565b5b816004811115611a4f57611a4e612fef565b5b1415611a5a57611bfa565b60016004811115611a6e57611a6d612fef565b5b816004811115611a8157611a80612fef565b5b1415611ac2576040517f08c379a0000000000000000000000000000000000000000000000000000000008152600401611ab99061306a565b60405180910390fd5b60026004811115611ad657611ad5612fef565b5b816004811115611ae957611ae8612fef565b5b1415611b2a576040517f08c379a0000000000000000000000000000000000000000000000000000000008152600401611b21906130d6565b60405180910390fd5b60036004811115611b3e57611b3d612fef565b5b816004811115611b5157611b50612fef565b5b1415611b92576040517f08c379a0000000000000000000000000000000000000000000000000000000008152600401611b8990613168565b60405180910390fd5b600480811115611ba557611ba4612fef565b5b816004811115611bb857611bb7612fef565b5b1415611bf9576040517f08c379a0000000000000000000000000000000000000000000000000000000008152600401611bf0906131fa565b60405180910390fd5b5b50565b606060006002836002611c10919061257f565b611c1a919061266b565b67ffffffffffffffff811115611c3357611c3261321a565b5b6040519080825280601f01601f191660200182016040528015611c655781602001600182028036833780820191505090505b5090507f300000000000000000000000000000000000000000000000000000000000000081600081518110611c9d57611c9c613249565b5b60200101907effffffffffffffffffffffffffffffffffffffffffffffffffffffffffffff1916908160001a9053507f780000000000000000000000000000000000000000000000000000000000000081600181518110611d0157611d00613249565b5b60200101907effffffffffffffffffffffffffffffffffffffffffffffffffffffffffffff1916908160001a90535060006001846002611d41919061257f565b611d4b919061266b565b90505b6001811115611deb577f3031323334353637383961626364656600000000000000000000000000000000600f861660108110611d8d57611d8c613249565b5b1a60f81b828281518110611da457611da3613249565b5b60200101907effffffffffffffffffffffffffffffffffffffffffffffffffffffffffffff1916908160001a905350600485901c945080611de490613278565b9050611d4e565b5060008414611e2f576040517f08c379a0000000000000000000000000000000000000000000000000000000008152600401611e26906132ee565b60405180910390fd5b8091505092915050565b600080fd5b60007fffffffff0000000000000000000000000000000000000000000000000000000082169050919050565b611e7381611e3e565b8114611e7e57600080fd5b50565b600081359050611e9081611e6a565b92915050565b600060208284031215611eac57611eab611e39565b5b6000611eba84828501611e81565b91505092915050565b60008115159050919050565b611ed881611ec3565b82525050565b6000602082019050611ef36000830184611ecf565b92915050565b600081519050919050565b600082825260208201905092915050565b60005b83811015611f33578082015181840152602081019050611f18565b83811115611f42576000848401525b50505050565b6000601f19601f8301169050919050565b6000611f6482611ef9565b611f6e8185611f04565b9350611f7e818560208601611f15565b611f8781611f48565b840191505092915050565b60006020820190508181036000830152611fac8184611f59565b905092915050565b600073ffffffffffffffffffffffffffffffffffffffff82169050919050565b6000611fdf82611fb4565b9050919050565b611fef81611fd4565b8114611ffa57600080fd5b50565b60008135905061200c81611fe6565b92915050565b6000819050919050565b61202581612012565b811461203057600080fd5b50565b6000813590506120428161201c565b92915050565b6000806040838503121561205f5761205e611e39565b5b600061206d85828601611ffd565b925050602061207e85828601612033565b9150509250929050565b61209181612012565b82525050565b60006020820190506120ac6000830184612088565b92915050565b6000806000606084860312156120cb576120ca611e39565b5b60006120d986828701611ffd565b93505060206120ea86828701611ffd565b92505060406120fb86828701612033565b9150509250925092565b6000819050919050565b61211881612105565b811461212357600080fd5b50565b6000813590506121358161210f565b92915050565b60006020828403121561215157612150611e39565b5b600061215f84828501612126565b91505092915050565b61217181612105565b82525050565b600060208201905061218c6000830184612168565b92915050565b600080604083850312156121a9576121a8611e39565b5b60006121b785828601612126565b92505060206121c885828601611ffd565b9150509250929050565b600060ff82169050919050565b6121e8816121d2565b82525050565b600060208201905061220360008301846121df565b92915050565b60006020828403121561221f5761221e611e39565b5b600061222d84828501612033565b91505092915050565b60006020828403121561224c5761224b611e39565b5b600061225a84828501611ffd565b91505092915050565b61226c816121d2565b811461227757600080fd5b50565b60008135905061228981612263565b92915050565b600080600080600080600060e0888a0312156122ae576122ad611e39565b5b60006122bc8a828b01611ffd565b97505060206122cd8a828b01611ffd565b96505060406122de8a828b01612033565b95505060606122ef8a828b01612033565b94505060806123008a828b0161227a565b93505060a06123118a828b01612126565b92505060c06123228a828b01612126565b91505092959891949750929550565b6000806040838503121561234857612347611e39565b5b600061235685828601611ffd565b925050602061236785828601611ffd565b9150509250929050565b7f4e487b7100000000000000000000000000000000000000000000000000000000600052602260045260246000fd5b600060028204905060018216806123b857607f821691505b602082108114156123cc576123cb612371565b5b50919050565b7f4e487b7100000000000000000000000000000000000000000000000000000000600052601160045260246000fd5b60008160011c9050919050565b6000808291508390505b600185111561245857808604811115612434576124336123d2565b5b60018516156124435780820291505b808102905061245185612401565b9450612418565b94509492505050565b600082612471576001905061252d565b8161247f576000905061252d565b8160018114612495576002811461249f576124ce565b600191505061252d565b60ff8411156124b1576124b06123d2565b5b8360020a9150848211156124c8576124c76123d2565b5b5061252d565b5060208310610133831016604e8410600b84101617156125035782820a9050838111156124fe576124fd6123d2565b5b61252d565b612510848484600161240e565b92509050818404811115612527576125266123d2565b5b81810290505b9392505050565b600061253f82612012565b915061254a836121d2565b92506125777fffffffffffffffffffffffffffffffffffffffffffffffffffffffffffffffff8484612461565b905092915050565b600061258a82612012565b915061259583612012565b9250817fffffffffffffffffffffffffffffffffffffffffffffffffffffffffffffffff04831182151516156125ce576125cd6123d2565b5b828202905092915050565b7f416363657373436f6e74726f6c3a2063616e206f6e6c792072656e6f756e636560008201527f20726f6c657320666f722073656c660000000000000000000000000000000000602082015250565b6000612635602f83611f04565b9150612640826125d9565b604082019050919050565b6000602082019050818103600083015261266481612628565b9050919050565b600061267682612012565b915061268183612012565b9250827fffffffffffffffffffffffffffffffffffffffffffffffffffffffffffffffff038211156126b6576126b56123d2565b5b828201905092915050565b7f45524332303a2064656372656173656420616c6c6f77616e63652062656c6f7760008201527f207a65726f000000000000000000000000000000000000000000000000000000602082015250565b600061271d602583611f04565b9150612728826126c1565b604082019050919050565b6000602082019050818103600083015261274c81612710565b9050919050565b7f45524332305065726d69743a206578706972656420646561646c696e65000000600082015250565b6000612789601d83611f04565b915061279482612753565b602082019050919050565b600060208201905081810360008301526127b88161277c565b9050919050565b6127c881611fd4565b82525050565b600060c0820190506127e36000830189612168565b6127f060208301886127bf565b6127fd60408301876127bf565b61280a6060830186612088565b6128176080830185612088565b61282460a0830184612088565b979650505050505050565b7f45524332305065726d69743a20696e76616c6964207369676e61747572650000600082015250565b6000612865601e83611f04565b91506128708261282f565b602082019050919050565b6000602082019050818103600083015261289481612858565b9050919050565b7f45524332303a20617070726f76652066726f6d20746865207a65726f2061646460008201527f7265737300000000000000000000000000000000000000000000000000000000602082015250565b60006128f7602483611f04565b91506129028261289b565b604082019050919050565b60006020820190508181036000830152612926816128ea565b9050919050565b7f45524332303a20617070726f766520746f20746865207a65726f20616464726560008201527f7373000000000000000000000000000000000000000000000000000000000000602082015250565b6000612989602283611f04565b91506129948261292d565b604082019050919050565b600060208201905081810360008301526129b88161297c565b9050919050565b7f45524332303a206d696e7420746f20746865207a65726f206164647265737300600082015250565b60006129f5601f83611f04565b9150612a00826129bf565b602082019050919050565b60006020820190508181036000830152612a24816129e8565b9050919050565b7f45524332303a20696e73756666696369656e7420616c6c6f77616e6365000000600082015250565b6000612a61601d83611f04565b9150612a6c82612a2b565b602082019050919050565b60006020820190508181036000830152612a9081612a54565b9050919050565b7f45524332303a207472616e736665722066726f6d20746865207a65726f20616460008201527f6472657373000000000000000000000000000000000000000000000000000000602082015250565b6000612af3602583611f04565b9150612afe82612a97565b604082019050919050565b60006020820190508181036000830152612b2281612ae6565b9050919050565b7f45524332303a207472616e7366657220746f20746865207a65726f206164647260008201527f6573730000000000000000000000000000000000000000000000000000000000602082015250565b6000612b85602383611f04565b9150612b9082612b29565b604082019050919050565b60006020820190508181036000830152612bb481612b78565b9050919050565b7f45524332303a207472616e7366657220616d6f756e742065786365656473206260008201527f616c616e63650000000000000000000000000000000000000000000000000000602082015250565b6000612c17602683611f04565b9150612c2282612bbb565b604082019050919050565b60006020820190508181036000830152612c4681612c0a565b9050919050565b7f45524332303a206275726e2066726f6d20746865207a65726f2061646472657360008201527f7300000000000000000000000000000000000000000000000000000000000000602082015250565b6000612ca9602183611f04565b9150612cb482612c4d565b604082019050919050565b60006020820190508181036000830152612cd881612c9c565b9050919050565b7f45524332303a206275726e20616d6f756e7420657863656564732062616c616e60008201527f6365000000000000000000000000000000000000000000000000000000000000602082015250565b6000612d3b602283611f04565b9150612d4682612cdf565b604082019050919050565b60006020820190508181036000830152612d6a81612d2e565b9050919050565b6000612d7c82612012565b9150612d8783612012565b925082821015612d9a57612d996123d2565b5b828203905092915050565b600081905092915050565b7f416363657373436f6e74726f6c3a206163636f756e7420000000000000000000600082015250565b6000612de6601783612da5565b9150612df182612db0565b601782019050919050565b6000612e0782611ef9565b612e118185612da5565b9350612e21818560208601611f15565b80840191505092915050565b7f206973206d697373696e6720726f6c6520000000000000000000000000000000600082015250565b6000612e63601183612da5565b9150612e6e82612e2d565b601182019050919050565b6000612e8482612dd9565b9150612e908285612dfc565b9150612e9b82612e56565b9150612ea78284612dfc565b91508190509392505050565b600060a082019050612ec86000830188612168565b612ed56020830187612168565b612ee26040830186612168565b612eef6060830185612088565b612efc60808301846127bf565b9695505050505050565b7f1901000000000000000000000000000000000000000000000000000000000000600082015250565b6000612f3c600283612da5565b9150612f4782612f06565b600282019050919050565b6000819050919050565b612f6d612f6882612105565b612f52565b82525050565b6000612f7e82612f2f565b9150612f8a8285612f5c565b602082019150612f9a8284612f5c565b6020820191508190509392505050565b6000608082019050612fbf6000830187612168565b612fcc60208301866121df565b612fd96040830185612168565b612fe66060830184612168565b95945050505050565b7f4e487b7100000000000000000000000000000000000000000000000000000000600052602160045260246000fd5b7f45434453413a20696e76616c6964207369676e61747572650000000000000000600082015250565b6000613054601883611f04565b915061305f8261301e565b602082019050919050565b6000602082019050818103600083015261308381613047565b9050919050565b7f45434453413a20696e76616c6964207369676e6174757265206c656e67746800600082015250565b60006130c0601f83611f04565b91506130cb8261308a565b602082019050919050565b600060208201905081810360008301526130ef816130b3565b9050919050565b7f45434453413a20696e76616c6964207369676e6174757265202773272076616c60008201527f7565000000000000000000000000000000000000000000000000000000000000602082015250565b6000613152602283611f04565b915061315d826130f6565b604082019050919050565b6000602082019050818103600083015261318181613145565b9050919050565b7f45434453413a20696e76616c6964207369676e6174757265202776272076616c60008201527f7565000000000000000000000000000000000000000000000000000000000000602082015250565b60006131e4602283611f04565b91506131ef82613188565b604082019050919050565b60006020820190508181036000830152613213816131d7565b9050919050565b7f4e487b7100000000000000000000000000000000000000000000000000000000600052604160045260246000fd5b7f4e487b7100000000000000000000000000000000000000000000000000000000600052603260045260246000fd5b600061328382612012565b91506000821415613297576132966123d2565b5b600182039050919050565b7f537472696e67733a20686578206c656e67746820696e73756666696369656e74600082015250565b60006132d8602083611f04565b91506132e3826132a2565b602082019050919050565b60006020820190508181036000830152613307816132cb565b905091905056fea264697066735822122069ab6c21f9b8d8fc0a75057457e9c9057e70314eeccce66bc1a286da5c16155b64736f6c63430008090033",
  "linkReferences": {},
  "deployedLinkReferences": {}
}