{
  "_format": "hh-sol-artifact-1",
  "contractName": "Radenu",
  "sourceName": "contracts/Radenu.sol",
  "abi": [
    {
      "inputs": [
        {
          "internalType": "address",
          "name": "_transferToken",
          "type": "address"
        }
      ],
      "stateMutability": "nonpayable",
      "type": "constructor"
    },
    {
      "anonymous": false,
      "inputs": [
        {
          "indexed": true,
          "internalType": "address",
          "name": "sender",
          "type": "address"
        },
        {
          "indexed": true,
          "internalType": "address",
          "name": "reciever",
          "type": "address"
        },
        {
          "indexed": false,
          "internalType": "uint256",
          "name": "amount",
          "type": "uint256"
        },
        {
          "indexed": false,
          "internalType": "uint256",
          "name": "when",
          "type": "uint256"
        }
      ],
      "name": "OrderAccepted",
      "type": "event"
    },
    {
      "anonymous": false,
      "inputs": [
        {
          "indexed": true,
          "internalType": "address",
          "name": "sender",
          "type": "address"
        },
        {
          "indexed": false,
          "internalType": "uint256",
          "name": "amount",
          "type": "uint256"
        },
        {
          "indexed": false,
          "internalType": "uint256",
          "name": "when",
          "type": "uint256"
        }
      ],
      "name": "OrderCancelled",
      "type": "event"
    },
    {
      "anonymous": false,
      "inputs": [
        {
          "indexed": true,
          "internalType": "address",
          "name": "sender",
          "type": "address"
        },
        {
          "indexed": true,
          "internalType": "address",
          "name": "reciever",
          "type": "address"
        },
        {
          "indexed": false,
          "internalType": "uint256",
          "name": "amount",
          "type": "uint256"
        },
        {
          "indexed": false,
          "internalType": "uint256",
          "name": "when",
          "type": "uint256"
        }
      ],
      "name": "OrderCompleted",
      "type": "event"
    },
    {
      "anonymous": false,
      "inputs": [
        {
          "indexed": true,
          "internalType": "address",
          "name": "sender",
          "type": "address"
        },
        {
          "indexed": true,
          "internalType": "address",
          "name": "reciever",
          "type": "address"
        },
        {
          "indexed": false,
          "internalType": "uint256",
          "name": "amount",
          "type": "uint256"
        },
        {
          "indexed": false,
          "internalType": "uint256",
          "name": "when",
          "type": "uint256"
        }
      ],
      "name": "OrderDisputed",
      "type": "event"
    },
    {
      "anonymous": false,
      "inputs": [
        {
          "indexed": true,
          "internalType": "address",
          "name": "sender",
          "type": "address"
        },
        {
          "indexed": true,
          "internalType": "address",
          "name": "reciever",
          "type": "address"
        },
        {
          "indexed": false,
          "internalType": "uint256",
          "name": "amount",
          "type": "uint256"
        },
        {
          "indexed": false,
          "internalType": "uint256",
          "name": "when",
          "type": "uint256"
        }
      ],
      "name": "OrderFufilled",
      "type": "event"
    },
    {
      "anonymous": false,
      "inputs": [
        {
          "indexed": true,
          "internalType": "address",
          "name": "sender",
          "type": "address"
        },
        {
          "indexed": false,
          "internalType": "uint256",
          "name": "amount",
          "type": "uint256"
        },
        {
          "indexed": false,
          "internalType": "uint256",
          "name": "when",
          "type": "uint256"
        }
      ],
      "name": "OrderInitiated",
      "type": "event"
    },
    {
      "anonymous": false,
      "inputs": [
        {
          "indexed": true,
          "internalType": "address",
          "name": "previousOwner",
          "type": "address"
        },
        {
          "indexed": true,
          "internalType": "address",
          "name": "newOwner",
          "type": "address"
        }
      ],
      "name": "OwnershipTransferred",
      "type": "event"
    },
    {
      "anonymous": false,
      "inputs": [
        {
          "indexed": true,
          "internalType": "address",
          "name": "sender",
          "type": "address"
        },
        {
          "indexed": false,
          "internalType": "uint256",
          "name": "amount",
          "type": "uint256"
        },
        {
          "indexed": false,
          "internalType": "uint256",
          "name": "when",
          "type": "uint256"
        }
      ],
      "name": "UserCredited",
      "type": "event"
    },
    {
      "inputs": [
        {
          "internalType": "uint256",
          "name": "_orderId",
          "type": "uint256"
        }
      ],
      "name": "acceptOrder",
      "outputs": [],
      "stateMutability": "nonpayable",
      "type": "function"
    },
    {
      "inputs": [
        {
          "internalType": "address",
          "name": "",
          "type": "address"
        }
      ],
      "name": "acceptedOrder",
      "outputs": [
        {
          "internalType": "uint256",
          "name": "amount",
          "type": "uint256"
        },
        {
          "internalType": "uint256",
          "name": "accountNumber",
          "type": "uint256"
        },
        {
          "internalType": "string",
          "name": "accountName",
          "type": "string"
        },
        {
          "internalType": "string",
          "name": "bankName",
          "type": "string"
        },
        {
          "internalType": "string",
          "name": "country",
          "type": "string"
        },
        {
          "internalType": "uint128",
          "name": "exchangeRate",
          "type": "uint128"
        },
        {
          "internalType": "address payable",
          "name": "sender",
          "type": "address"
        },
        {
          "internalType": "address payable",
          "name": "receiver",
          "type": "address"
        },
        {
          "internalType": "uint256",
          "name": "orderId",
          "type": "uint256"
        },
        {
          "internalType": "uint128",
          "name": "duration",
          "type": "uint128"
        },
        {
          "internalType": "uint256",
          "name": "timeInitiated",
          "type": "uint256"
        },
        {
          "internalType": "enum Radenu.OrderState",
          "name": "state",
          "type": "uint8"
        }
      ],
      "stateMutability": "view",
      "type": "function"
    },
    {
      "inputs": [
        {
          "internalType": "uint256",
          "name": "_orderId",
          "type": "uint256"
        }
      ],
      "name": "cancelOrder",
      "outputs": [],
      "stateMutability": "nonpayable",
      "type": "function"
    },
    {
      "inputs": [
        {
          "internalType": "uint256",
          "name": "_orderId",
          "type": "uint256"
        }
      ],
      "name": "completeOrder",
      "outputs": [],
      "stateMutability": "nonpayable",
      "type": "function"
    },
    {
      "inputs": [
        {
          "internalType": "uint256",
          "name": "_amount",
          "type": "uint256"
        },
        {
          "internalType": "uint256",
          "name": "_accountNumber",
          "type": "uint256"
        },
        {
          "internalType": "string",
          "name": "_accountName",
          "type": "string"
        },
        {
          "internalType": "string",
          "name": "_bankName",
          "type": "string"
        },
        {
          "internalType": "string",
          "name": "_country",
          "type": "string"
        },
        {
          "internalType": "uint128",
          "name": "_exchangeRate",
          "type": "uint128"
        }
      ],
      "name": "createOrder",
      "outputs": [],
      "stateMutability": "nonpayable",
      "type": "function"
    },
    {
      "inputs": [
        {
          "internalType": "address",
          "name": "user",
          "type": "address"
        },
        {
          "internalType": "uint256",
          "name": "_orderId",
          "type": "uint256"
        }
      ],
      "name": "creditUser",
      "outputs": [],
      "stateMutability": "nonpayable",
      "type": "function"
    },
    {
      "inputs": [],
      "name": "getTotalOrder",
      "outputs": [
        {
          "components": [
            {
              "internalType": "uint256",
              "name": "amount",
              "type": "uint256"
            },
            {
              "internalType": "uint256",
              "name": "accountNumber",
              "type": "uint256"
            },
            {
              "internalType": "string",
              "name": "accountName",
              "type": "string"
            },
            {
              "internalType": "string",
              "name": "bankName",
              "type": "string"
            },
            {
              "internalType": "string",
              "name": "country",
              "type": "string"
            },
            {
              "internalType": "uint128",
              "name": "exchangeRate",
              "type": "uint128"
            },
            {
              "internalType": "address payable",
              "name": "sender",
              "type": "address"
            },
            {
              "internalType": "address payable",
              "name": "receiver",
              "type": "address"
            },
            {
              "internalType": "uint256",
              "name": "orderId",
              "type": "uint256"
            },
            {
              "internalType": "uint128",
              "name": "duration",
              "type": "uint128"
            },
            {
              "internalType": "uint256",
              "name": "timeInitiated",
              "type": "uint256"
            },
            {
              "internalType": "enum Radenu.OrderState",
              "name": "state",
              "type": "uint8"
            }
          ],
          "internalType": "struct Radenu.Order[]",
          "name": "",
          "type": "tuple[]"
        }
      ],
      "stateMutability": "view",
      "type": "function"
    },
    {
      "inputs": [
        {
          "internalType": "uint256",
          "name": "_orderId",
          "type": "uint256"
        }
      ],
      "name": "openDispute",
      "outputs": [],
      "stateMutability": "nonpayable",
      "type": "function"
    },
    {
      "inputs": [
        {
          "internalType": "uint256",
          "name": "",
          "type": "uint256"
        }
      ],
      "name": "order",
      "outputs": [
        {
          "internalType": "uint256",
          "name": "amount",
          "type": "uint256"
        },
        {
          "internalType": "uint256",
          "name": "accountNumber",
          "type": "uint256"
        },
        {
          "internalType": "string",
          "name": "accountName",
          "type": "string"
        },
        {
          "internalType": "string",
          "name": "bankName",
          "type": "string"
        },
        {
          "internalType": "string",
          "name": "country",
          "type": "string"
        },
        {
          "internalType": "uint128",
          "name": "exchangeRate",
          "type": "uint128"
        },
        {
          "internalType": "address payable",
          "name": "sender",
          "type": "address"
        },
        {
          "internalType": "address payable",
          "name": "receiver",
          "type": "address"
        },
        {
          "internalType": "uint256",
          "name": "orderId",
          "type": "uint256"
        },
        {
          "internalType": "uint128",
          "name": "duration",
          "type": "uint128"
        },
        {
          "internalType": "uint256",
          "name": "timeInitiated",
          "type": "uint256"
        },
        {
          "internalType": "enum Radenu.OrderState",
          "name": "state",
          "type": "uint8"
        }
      ],
      "stateMutability": "view",
      "type": "function"
    },
    {
      "inputs": [],
      "name": "orderTotal",
      "outputs": [
        {
          "internalType": "uint256",
          "name": "",
          "type": "uint256"
        }
      ],
      "stateMutability": "view",
      "type": "function"
    },
    {
      "inputs": [],
      "name": "owner",
      "outputs": [
        {
          "internalType": "address",
          "name": "",
          "type": "address"
        }
      ],
      "stateMutability": "view",
      "type": "function"
    },
    {
      "inputs": [
        {
          "internalType": "uint256",
          "name": "_orderId",
          "type": "uint256"
        }
      ],
      "name": "releasePayment",
      "outputs": [],
      "stateMutability": "nonpayable",
      "type": "function"
    },
    {
      "inputs": [],
      "name": "renounceOwnership",
      "outputs": [],
      "stateMutability": "nonpayable",
      "type": "function"
    },
    {
      "inputs": [
        {
          "internalType": "address",
          "name": "newOwner",
          "type": "address"
        }
      ],
      "name": "transferOwnership",
      "outputs": [],
      "stateMutability": "nonpayable",
      "type": "function"
    },
    {
      "inputs": [],
      "name": "transferToken",
      "outputs": [
        {
          "internalType": "contract IERC20",
          "name": "",
          "type": "address"
        }
      ],
      "stateMutability": "view",
      "type": "function"
    },
    {
      "inputs": [],
      "name": "withdraw",
      "outputs": [],
      "stateMutability": "nonpayable",
      "type": "function"
    },
    {
      "inputs": [
        {
          "internalType": "contract IERC20",
          "name": "token",
          "type": "address"
        }
      ],
      "name": "withdrawTokens",
      "outputs": [],
      "stateMutability": "nonpayable",
      "type": "function"
    }
  ],
  "bytecode": "0x60806040523480156200001157600080fd5b5060405162005c0038038062005c008339818101604052810190620000379190620001df565b60016000819055506200005f62000053620000a760201b60201c565b620000af60201b60201c565b80600360006101000a81548173ffffffffffffffffffffffffffffffffffffffff021916908373ffffffffffffffffffffffffffffffffffffffff1602179055505062000211565b600033905090565b6000600160009054906101000a900473ffffffffffffffffffffffffffffffffffffffff16905081600160006101000a81548173ffffffffffffffffffffffffffffffffffffffff021916908373ffffffffffffffffffffffffffffffffffffffff1602179055508173ffffffffffffffffffffffffffffffffffffffff168173ffffffffffffffffffffffffffffffffffffffff167f8be0079c531659141344cd1fd0a4f28419497f9722a3daafe3b4186f6b6457e060405160405180910390a35050565b600080fd5b600073ffffffffffffffffffffffffffffffffffffffff82169050919050565b6000620001a7826200017a565b9050919050565b620001b9816200019a565b8114620001c557600080fd5b50565b600081519050620001d981620001ae565b92915050565b600060208284031215620001f857620001f762000175565b5b60006200020884828501620001c8565b91505092915050565b6159df80620002216000396000f3fe608060405234801561001057600080fd5b506004361061010b5760003560e01c8063799a5359116100a2578063a9669ae211610071578063a9669ae21461027e578063b6adaaff1461029c578063dad1d4c1146102b8578063ef18e9ed146102d6578063f2fde38b146102f25761010b565b8063799a5359146101eb57806388685cd9146102095780638da5cb5b146102255780639120f053146102435761010b565b806349df728c116100de57806349df728c1461018d578063514fcac7146101a95780636cbc24eb146101c5578063715018a6146101e15761010b565b80632113b1391461011057806321603f431461012c57806327d00fb0146101675780633ccfd60b14610183575b600080fd5b61012a60048036038101906101259190614693565b61030e565b005b610146600480360381019061014191906146d3565b610924565b60405161015e9c9b9a9998979695949392919061486b565b60405180910390f35b610181600480360381019061017c91906146d3565b610bb1565b005b61018b611246565b005b6101a760048036038101906101a29190614978565b61129d565b005b6101c360048036038101906101be91906146d3565b6113c4565b005b6101df60048036038101906101da9190614b06565b611a82565b005b6101e9611cd7565b005b6101f3611ceb565b6040516102009190614c46565b60405180910390f35b610223600480360381019061021e91906146d3565b611d11565b005b61022d6125bd565b60405161023a9190614c70565b60405180910390f35b61025d60048036038101906102589190614c8b565b6125e7565b6040516102759c9b9a9998979695949392919061486b565b60405180910390f35b610286612864565b6040516102939190614cb8565b60405180910390f35b6102b660048036038101906102b191906146d3565b612875565b005b6102c0612eb5565b6040516102cd9190614f2d565b60405180910390f35b6102f060048036038101906102eb91906146d3565b61326e565b005b61030c60048036038101906103079190614c8b565b613617565b005b60026000541415610354576040517f08c379a000000000000000000000000000000000000000000000000000000000815260040161034b90614f9b565b60405180910390fd5b600260008190555061036461369b565b60006006805480602002602001604051908101604052809291908181526020016000905b8282101561071457838290600052602060002090600c02016040518061018001604052908160008201548152602001600182015481526020016002820180546103d090614fea565b80601f01602080910402602001604051908101604052809291908181526020018280546103fc90614fea565b80156104495780601f1061041e57610100808354040283529160200191610449565b820191906000526020600020905b81548152906001019060200180831161042c57829003601f168201915b5050505050815260200160038201805461046290614fea565b80601f016020809104026020016040519081016040528092919081815260200182805461048e90614fea565b80156104db5780601f106104b0576101008083540402835291602001916104db565b820191906000526020600020905b8154815290600101906020018083116104be57829003601f168201915b505050505081526020016004820180546104f490614fea565b80601f016020809104026020016040519081016040528092919081815260200182805461052090614fea565b801561056d5780601f106105425761010080835404028352916020019161056d565b820191906000526020600020905b81548152906001019060200180831161055057829003601f168201915b505050505081526020016005820160009054906101000a90046fffffffffffffffffffffffffffffffff166fffffffffffffffffffffffffffffffff166fffffffffffffffffffffffffffffffff1681526020016006820160009054906101000a900473ffffffffffffffffffffffffffffffffffffffff1673ffffffffffffffffffffffffffffffffffffffff1673ffffffffffffffffffffffffffffffffffffffff1681526020016007820160009054906101000a900473ffffffffffffffffffffffffffffffffffffffff1673ffffffffffffffffffffffffffffffffffffffff1673ffffffffffffffffffffffffffffffffffffffff168152602001600882015481526020016009820160009054906101000a90046fffffffffffffffffffffffffffffffff166fffffffffffffffffffffffffffffffff166fffffffffffffffffffffffffffffffff168152602001600a8201548152602001600b820160009054906101000a900460ff1660058111156106ef576106ee6147f4565b5b6005811115610701576107006147f4565b5b8152505081526020019060010190610388565b50505050905060005b8151811015610916578282828151811061073a5761073961501c565b5b602002602001015161010001511415610903576000600682815481106107635761076261501c565b5b90600052602060002090600c02016000015490508060046000828254610789919061507a565b92505081905550600360009054906101000a900473ffffffffffffffffffffffffffffffffffffffff1673ffffffffffffffffffffffffffffffffffffffff1663a9059cbb86836040518363ffffffff1660e01b81526004016107ed9291906150ae565b602060405180830381600087803b15801561080757600080fd5b505af115801561081b573d6000803e3d6000fd5b505050506040513d601f19601f8201168201806040525081019061083f919061510f565b508282815181106108535761085261501c565b5b602002602001015160e0015173ffffffffffffffffffffffffffffffffffffffff168383815181106108885761088761501c565b5b602002602001015160c0015173ffffffffffffffffffffffffffffffffffffffff167f3520ca08249a3390ce377fec3cc699834fd344c8ab9a478d49e12f149c58f3f08585815181106108de576108dd61501c565b5b602002602001015160000151426040516108f992919061513c565b60405180910390a3505b808061090e90615165565b91505061071d565b505060016000819055505050565b6006818154811061093457600080fd5b90600052602060002090600c020160009150905080600001549080600101549080600201805461096390614fea565b80601f016020809104026020016040519081016040528092919081815260200182805461098f90614fea565b80156109dc5780601f106109b1576101008083540402835291602001916109dc565b820191906000526020600020905b8154815290600101906020018083116109bf57829003601f168201915b5050505050908060030180546109f190614fea565b80601f0160208091040260200160405190810160405280929190818152602001828054610a1d90614fea565b8015610a6a5780601f10610a3f57610100808354040283529160200191610a6a565b820191906000526020600020905b815481529060010190602001808311610a4d57829003601f168201915b505050505090806004018054610a7f90614fea565b80601f0160208091040260200160405190810160405280929190818152602001828054610aab90614fea565b8015610af85780601f10610acd57610100808354040283529160200191610af8565b820191906000526020600020905b815481529060010190602001808311610adb57829003601f168201915b5050505050908060050160009054906101000a90046fffffffffffffffffffffffffffffffff16908060060160009054906101000a900473ffffffffffffffffffffffffffffffffffffffff16908060070160009054906101000a900473ffffffffffffffffffffffffffffffffffffffff16908060080154908060090160009054906101000a90046fffffffffffffffffffffffffffffffff169080600a01549080600b0160009054906101000a900460ff1690508c565b60026000541415610bf7576040517f08c379a0000000000000000000000000000000000000000000000000000000008152600401610bee90614f9b565b60405180910390fd5b600260008190555060006006805480602002602001604051908101604052809291908181526020016000905b82821015610faf57838290600052602060002090600c0201604051806101800160405290816000820154815260200160018201548152602001600282018054610c6b90614fea565b80601f0160208091040260200160405190810160405280929190818152602001828054610c9790614fea565b8015610ce45780601f10610cb957610100808354040283529160200191610ce4565b820191906000526020600020905b815481529060010190602001808311610cc757829003601f168201915b50505050508152602001600382018054610cfd90614fea565b80601f0160208091040260200160405190810160405280929190818152602001828054610d2990614fea565b8015610d765780601f10610d4b57610100808354040283529160200191610d76565b820191906000526020600020905b815481529060010190602001808311610d5957829003601f168201915b50505050508152602001600482018054610d8f90614fea565b80601f0160208091040260200160405190810160405280929190818152602001828054610dbb90614fea565b8015610e085780601f10610ddd57610100808354040283529160200191610e08565b820191906000526020600020905b815481529060010190602001808311610deb57829003601f168201915b505050505081526020016005820160009054906101000a90046fffffffffffffffffffffffffffffffff166fffffffffffffffffffffffffffffffff166fffffffffffffffffffffffffffffffff1681526020016006820160009054906101000a900473ffffffffffffffffffffffffffffffffffffffff1673ffffffffffffffffffffffffffffffffffffffff1673ffffffffffffffffffffffffffffffffffffffff1681526020016007820160009054906101000a900473ffffffffffffffffffffffffffffffffffffffff1673ffffffffffffffffffffffffffffffffffffffff1673ffffffffffffffffffffffffffffffffffffffff168152602001600882015481526020016009820160009054906101000a90046fffffffffffffffffffffffffffffffff166fffffffffffffffffffffffffffffffff166fffffffffffffffffffffffffffffffff168152602001600a8201548152602001600b820160009054906101000a900460ff166005811115610f8a57610f896147f4565b5b6005811115610f9c57610f9b6147f4565b5b8152505081526020019060010190610c23565b50505050905060005b81518110156112395782828281518110610fd557610fd461501c565b5b602002602001015161010001511415611226573373ffffffffffffffffffffffffffffffffffffffff16600682815481106110135761101261501c565b5b90600052602060002090600c020160070160009054906101000a900473ffffffffffffffffffffffffffffffffffffffff1673ffffffffffffffffffffffffffffffffffffffff1614806110d757503373ffffffffffffffffffffffffffffffffffffffff166006828154811061108d5761108c61501c565b5b90600052602060002090600c020160060160009054906101000a900473ffffffffffffffffffffffffffffffffffffffff1673ffffffffffffffffffffffffffffffffffffffff16145b611116576040517f08c379a000000000000000000000000000000000000000000000000000000000815260040161110d906151fa565b60405180910390fd5b60056006828154811061112c5761112b61501c565b5b90600052602060002090600c0201600b0160006101000a81548160ff0219169083600581111561115f5761115e6147f4565b5b02179055508181815181106111775761117661501c565b5b602002602001015160e0015173ffffffffffffffffffffffffffffffffffffffff168282815181106111ac576111ab61501c565b5b602002602001015160c0015173ffffffffffffffffffffffffffffffffffffffff167f3520ca08249a3390ce377fec3cc699834fd344c8ab9a478d49e12f149c58f3f08484815181106112025761120161501c565b5b6020026020010151600001514260405161121d92919061513c565b60405180910390a35b808061123190615165565b915050610fb8565b5050600160008190555050565b61124e61369b565b60004790503373ffffffffffffffffffffffffffffffffffffffff166108fc829081150290604051600060405180830381858888f19350505050158015611299573d6000803e3d6000fd5b5050565b6112a561369b565b60008173ffffffffffffffffffffffffffffffffffffffff166370a08231306040518263ffffffff1660e01b81526004016112e09190614c70565b60206040518083038186803b1580156112f857600080fd5b505afa15801561130c573d6000803e3d6000fd5b505050506040513d601f19601f82011682018060405250810190611330919061522f565b90508173ffffffffffffffffffffffffffffffffffffffff1663a9059cbb33836040518363ffffffff1660e01b815260040161136d9291906150ae565b602060405180830381600087803b15801561138757600080fd5b505af115801561139b573d6000803e3d6000fd5b505050506040513d601f19601f820116820180604052508101906113bf919061510f565b505050565b6002600054141561140a576040517f08c379a000000000000000000000000000000000000000000000000000000000815260040161140190614f9b565b60405180910390fd5b600260008190555060006006805480602002602001604051908101604052809291908181526020016000905b828210156117c257838290600052602060002090600c020160405180610180016040529081600082015481526020016001820154815260200160028201805461147e90614fea565b80601f01602080910402602001604051908101604052809291908181526020018280546114aa90614fea565b80156114f75780601f106114cc576101008083540402835291602001916114f7565b820191906000526020600020905b8154815290600101906020018083116114da57829003601f168201915b5050505050815260200160038201805461151090614fea565b80601f016020809104026020016040519081016040528092919081815260200182805461153c90614fea565b80156115895780601f1061155e57610100808354040283529160200191611589565b820191906000526020600020905b81548152906001019060200180831161156c57829003601f168201915b505050505081526020016004820180546115a290614fea565b80601f01602080910402602001604051908101604052809291908181526020018280546115ce90614fea565b801561161b5780601f106115f05761010080835404028352916020019161161b565b820191906000526020600020905b8154815290600101906020018083116115fe57829003601f168201915b505050505081526020016005820160009054906101000a90046fffffffffffffffffffffffffffffffff166fffffffffffffffffffffffffffffffff166fffffffffffffffffffffffffffffffff1681526020016006820160009054906101000a900473ffffffffffffffffffffffffffffffffffffffff1673ffffffffffffffffffffffffffffffffffffffff1673ffffffffffffffffffffffffffffffffffffffff1681526020016007820160009054906101000a900473ffffffffffffffffffffffffffffffffffffffff1673ffffffffffffffffffffffffffffffffffffffff1673ffffffffffffffffffffffffffffffffffffffff168152602001600882015481526020016009820160009054906101000a90046fffffffffffffffffffffffffffffffff166fffffffffffffffffffffffffffffffff166fffffffffffffffffffffffffffffffff168152602001600a8201548152602001600b820160009054906101000a900460ff16600581111561179d5761179c6147f4565b5b60058111156117af576117ae6147f4565b5b8152505081526020019060010190611436565b50505050905060005b8151811015611a7557828282815181106117e8576117e761501c565b5b602002602001015161010001511415611a62573373ffffffffffffffffffffffffffffffffffffffff168282815181106118255761182461501c565b5b602002602001015160c0015173ffffffffffffffffffffffffffffffffffffffff16148015611897575060006005811115611863576118626147f4565b5b8282815181106118765761187561501c565b5b602002602001015161016001516005811115611895576118946147f4565b5b145b6118d6576040517f08c379a00000000000000000000000000000000000000000000000000000000081526004016118cd906151fa565b60405180910390fd5b6004600682815481106118ec576118eb61501c565b5b90600052602060002090600c0201600b0160006101000a81548160ff0219169083600581111561191f5761191e6147f4565b5b021790555060008282815181106119395761193861501c565b5b6020026020010151600001519050600061195282613719565b8261195d919061525c565b9050600360009054906101000a900473ffffffffffffffffffffffffffffffffffffffff1673ffffffffffffffffffffffffffffffffffffffff1663a9059cbb33836040518363ffffffff1660e01b81526004016119bc9291906150ae565b602060405180830381600087803b1580156119d657600080fd5b505af11580156119ea573d6000803e3d6000fd5b505050506040513d601f19601f82011682018060405250810190611a0e919061510f565b503373ffffffffffffffffffffffffffffffffffffffff167f1cc4ef7364d50e00d7c0d373c9821ae6a7a3f03694e5931c5cddc075070ecb7c8342604051611a5792919061513c565b60405180910390a250505b8080611a6d90615165565b9150506117cb565b5050600160008190555050565b60026000541415611ac8576040517f08c379a0000000000000000000000000000000000000000000000000000000008152600401611abf90614f9b565b60405180910390fd5b6002600081905550611ade86868686868661373c565b600a861015611b22576040517f08c379a0000000000000000000000000000000000000000000000000000000008152600401611b19906152fe565b60405180910390fd5b85600360009054906101000a900473ffffffffffffffffffffffffffffffffffffffff1673ffffffffffffffffffffffffffffffffffffffff166370a08231336040518263ffffffff1660e01b8152600401611b7e9190614c70565b60206040518083038186803b158015611b9657600080fd5b505afa158015611baa573d6000803e3d6000fd5b505050506040513d601f19601f82011682018060405250810190611bce919061522f565b1015611c0f576040517f08c379a0000000000000000000000000000000000000000000000000000000008152600401611c069061536a565b60405180910390fd5b8560046000828254611c21919061525c565b92505081905550611c77333088600360009054906101000a900473ffffffffffffffffffffffffffffffffffffffff1673ffffffffffffffffffffffffffffffffffffffff16613a07909392919063ffffffff16565b3373ffffffffffffffffffffffffffffffffffffffff167fb6d979bac45c700af1372757d5abcc963c3a6fd5da5871f81fcc06d81b924d028742604051611cbf92919061513c565b60405180910390a26001600081905550505050505050565b611cdf61369b565b611ce96000613a90565b565b600360009054906101000a900473ffffffffffffffffffffffffffffffffffffffff1681565b60026000541415611d57576040517f08c379a0000000000000000000000000000000000000000000000000000000008152600401611d4e90614f9b565b60405180910390fd5b600260008190555060006006805480602002602001604051908101604052809291908181526020016000905b8282101561210f57838290600052602060002090600c0201604051806101800160405290816000820154815260200160018201548152602001600282018054611dcb90614fea565b80601f0160208091040260200160405190810160405280929190818152602001828054611df790614fea565b8015611e445780601f10611e1957610100808354040283529160200191611e44565b820191906000526020600020905b815481529060010190602001808311611e2757829003601f168201915b50505050508152602001600382018054611e5d90614fea565b80601f0160208091040260200160405190810160405280929190818152602001828054611e8990614fea565b8015611ed65780601f10611eab57610100808354040283529160200191611ed6565b820191906000526020600020905b815481529060010190602001808311611eb957829003601f168201915b50505050508152602001600482018054611eef90614fea565b80601f0160208091040260200160405190810160405280929190818152602001828054611f1b90614fea565b8015611f685780601f10611f3d57610100808354040283529160200191611f68565b820191906000526020600020905b815481529060010190602001808311611f4b57829003601f168201915b505050505081526020016005820160009054906101000a90046fffffffffffffffffffffffffffffffff166fffffffffffffffffffffffffffffffff166fffffffffffffffffffffffffffffffff1681526020016006820160009054906101000a900473ffffffffffffffffffffffffffffffffffffffff1673ffffffffffffffffffffffffffffffffffffffff1673ffffffffffffffffffffffffffffffffffffffff1681526020016007820160009054906101000a900473ffffffffffffffffffffffffffffffffffffffff1673ffffffffffffffffffffffffffffffffffffffff1673ffffffffffffffffffffffffffffffffffffffff168152602001600882015481526020016009820160009054906101000a90046fffffffffffffffffffffffffffffffff166fffffffffffffffffffffffffffffffff166fffffffffffffffffffffffffffffffff168152602001600a8201548152602001600b820160009054906101000a900460ff1660058111156120ea576120e96147f4565b5b60058111156120fc576120fb6147f4565b5b8152505081526020019060010190611d83565b50505050905060005b81518110156125b057828282815181106121355761213461501c565b5b60200260200101516101000151141561259d573373ffffffffffffffffffffffffffffffffffffffff168282815181106121725761217161501c565b5b602002602001015160c0015173ffffffffffffffffffffffffffffffffffffffff161480156121e45750600260058111156121b0576121af6147f4565b5b8282815181106121c3576121c261501c565b5b6020026020010151610160015160058111156121e2576121e16147f4565b5b145b612223576040517f08c379a000000000000000000000000000000000000000000000000000000000815260040161221a906151fa565b60405180910390fd5b6000600682815481106122395761223861501c565b5b90600052602060002090600c02016000015490506003600683815481106122635761226261501c565b5b90600052602060002090600c0201600b0160006101000a81548160ff02191690836005811115612296576122956147f4565b5b0217905550600760008484815181106122b2576122b161501c565b5b602002602001015160e0015173ffffffffffffffffffffffffffffffffffffffff1673ffffffffffffffffffffffffffffffffffffffff16815260200190815260200160002060008082016000905560018201600090556002820160006123199190614445565b6003820160006123299190614445565b6004820160006123399190614445565b6005820160006101000a8154906fffffffffffffffffffffffffffffffff02191690556006820160006101000a81549073ffffffffffffffffffffffffffffffffffffffff02191690556007820160006101000a81549073ffffffffffffffffffffffffffffffffffffffff021916905560088201600090556009820160006101000a8154906fffffffffffffffffffffffffffffffff0219169055600a820160009055600b820160006101000a81549060ff021916905550508060046000828254612405919061507a565b92505081905550600360009054906101000a900473ffffffffffffffffffffffffffffffffffffffff1673ffffffffffffffffffffffffffffffffffffffff1663a9059cbb84848151811061245d5761245c61501c565b5b602002602001015160e00151836040518363ffffffff1660e01b81526004016124879291906153ab565b602060405180830381600087803b1580156124a157600080fd5b505af11580156124b5573d6000803e3d6000fd5b505050506040513d601f19601f820116820180604052508101906124d9919061510f565b508282815181106124ed576124ec61501c565b5b602002602001015160e0015173ffffffffffffffffffffffffffffffffffffffff168383815181106125225761252161501c565b5b602002602001015160c0015173ffffffffffffffffffffffffffffffffffffffff167f1d751508c6397b3101acf96b996139363adaff3090daf3eb647af182c74ce8d38585815181106125785761257761501c565b5b6020026020010151600001514260405161259392919061513c565b60405180910390a3505b80806125a890615165565b915050612118565b5050600160008190555050565b6000600160009054906101000a900473ffffffffffffffffffffffffffffffffffffffff16905090565b600760205280600052604060002060009150905080600001549080600101549080600201805461261690614fea565b80601f016020809104026020016040519081016040528092919081815260200182805461264290614fea565b801561268f5780601f106126645761010080835404028352916020019161268f565b820191906000526020600020905b81548152906001019060200180831161267257829003601f168201915b5050505050908060030180546126a490614fea565b80601f01602080910402602001604051908101604052809291908181526020018280546126d090614fea565b801561271d5780601f106126f25761010080835404028352916020019161271d565b820191906000526020600020905b81548152906001019060200180831161270057829003601f168201915b50505050509080600401805461273290614fea565b80601f016020809104026020016040519081016040528092919081815260200182805461275e90614fea565b80156127ab5780601f10612780576101008083540402835291602001916127ab565b820191906000526020600020905b81548152906001019060200180831161278e57829003601f168201915b5050505050908060050160009054906101000a90046fffffffffffffffffffffffffffffffff16908060060160009054906101000a900473ffffffffffffffffffffffffffffffffffffffff16908060070160009054906101000a900473ffffffffffffffffffffffffffffffffffffffff16908060080154908060090160009054906101000a90046fffffffffffffffffffffffffffffffff169080600a01549080600b0160009054906101000a900460ff1690508c565b60006128706002613b56565b905090565b600260005414156128bb576040517f08c379a00000000000000000000000000000000000000000000000000000000081526004016128b290614f9b565b60405180910390fd5b600260008190555060006006805480602002602001604051908101604052809291908181526020016000905b82821015612c7357838290600052602060002090600c020160405180610180016040529081600082015481526020016001820154815260200160028201805461292f90614fea565b80601f016020809104026020016040519081016040528092919081815260200182805461295b90614fea565b80156129a85780601f1061297d576101008083540402835291602001916129a8565b820191906000526020600020905b81548152906001019060200180831161298b57829003601f168201915b505050505081526020016003820180546129c190614fea565b80601f01602080910402602001604051908101604052809291908181526020018280546129ed90614fea565b8015612a3a5780601f10612a0f57610100808354040283529160200191612a3a565b820191906000526020600020905b815481529060010190602001808311612a1d57829003601f168201915b50505050508152602001600482018054612a5390614fea565b80601f0160208091040260200160405190810160405280929190818152602001828054612a7f90614fea565b8015612acc5780601f10612aa157610100808354040283529160200191612acc565b820191906000526020600020905b815481529060010190602001808311612aaf57829003601f168201915b505050505081526020016005820160009054906101000a90046fffffffffffffffffffffffffffffffff166fffffffffffffffffffffffffffffffff166fffffffffffffffffffffffffffffffff1681526020016006820160009054906101000a900473ffffffffffffffffffffffffffffffffffffffff1673ffffffffffffffffffffffffffffffffffffffff1673ffffffffffffffffffffffffffffffffffffffff1681526020016007820160009054906101000a900473ffffffffffffffffffffffffffffffffffffffff1673ffffffffffffffffffffffffffffffffffffffff1673ffffffffffffffffffffffffffffffffffffffff168152602001600882015481526020016009820160009054906101000a90046fffffffffffffffffffffffffffffffff166fffffffffffffffffffffffffffffffff166fffffffffffffffffffffffffffffffff168152602001600a8201548152602001600b820160009054906101000a900460ff166005811115612c4e57612c4d6147f4565b5b6005811115612c6057612c5f6147f4565b5b81525050815260200190600101906128e7565b50505050905060005b8151811015612ea85782828281518110612c9957612c9861501c565b5b602002602001015161010001511415612e2a573373ffffffffffffffffffffffffffffffffffffffff16828281518110612cd657612cd561501c565b5b602002602001015160e0015173ffffffffffffffffffffffffffffffffffffffff1614612d38576040517f08c379a0000000000000000000000000000000000000000000000000000000008152600401612d2f90615420565b60405180910390fd5b600260068281548110612d4e57612d4d61501c565b5b90600052602060002090600c0201600b0160006101000a81548160ff02191690836005811115612d8157612d806147f4565b5b02179055503373ffffffffffffffffffffffffffffffffffffffff16828281518110612db057612daf61501c565b5b602002602001015160c0015173ffffffffffffffffffffffffffffffffffffffff167fb7973bfb8282f31b545622e88c61aa01722a824975a14722473715cf30b5aff0848481518110612e0657612e0561501c565b5b60200260200101516000015142604051612e2192919061513c565b60405180910390a35b6002600760003373ffffffffffffffffffffffffffffffffffffffff1673ffffffffffffffffffffffffffffffffffffffff168152602001908152602001600020600b0160006101000a81548160ff02191690836005811115612e9057612e8f6147f4565b5b02179055508080612ea090615165565b915050612c7c565b5050600160008190555050565b60606006805480602002602001604051908101604052809291908181526020016000905b8282101561326557838290600052602060002090600c0201604051806101800160405290816000820154815260200160018201548152602001600282018054612f2190614fea565b80601f0160208091040260200160405190810160405280929190818152602001828054612f4d90614fea565b8015612f9a5780601f10612f6f57610100808354040283529160200191612f9a565b820191906000526020600020905b815481529060010190602001808311612f7d57829003601f168201915b50505050508152602001600382018054612fb390614fea565b80601f0160208091040260200160405190810160405280929190818152602001828054612fdf90614fea565b801561302c5780601f106130015761010080835404028352916020019161302c565b820191906000526020600020905b81548152906001019060200180831161300f57829003601f168201915b5050505050815260200160048201805461304590614fea565b80601f016020809104026020016040519081016040528092919081815260200182805461307190614fea565b80156130be5780601f10613093576101008083540402835291602001916130be565b820191906000526020600020905b8154815290600101906020018083116130a157829003601f168201915b505050505081526020016005820160009054906101000a90046fffffffffffffffffffffffffffffffff166fffffffffffffffffffffffffffffffff166fffffffffffffffffffffffffffffffff1681526020016006820160009054906101000a900473ffffffffffffffffffffffffffffffffffffffff1673ffffffffffffffffffffffffffffffffffffffff1673ffffffffffffffffffffffffffffffffffffffff1681526020016007820160009054906101000a900473ffffffffffffffffffffffffffffffffffffffff1673ffffffffffffffffffffffffffffffffffffffff1673ffffffffffffffffffffffffffffffffffffffff168152602001600882015481526020016009820160009054906101000a90046fffffffffffffffffffffffffffffffff166fffffffffffffffffffffffffffffffff166fffffffffffffffffffffffffffffffff168152602001600a8201548152602001600b820160009054906101000a900460ff1660058111156132405761323f6147f4565b5b6005811115613252576132516147f4565b5b8152505081526020019060010190612ed9565b50505050905090565b600260005414156132b4576040517f08c379a00000000000000000000000000000000000000000000000000000000081526004016132ab90614f9b565b60405180910390fd5b6002600081905550600073ffffffffffffffffffffffffffffffffffffffff16600760003373ffffffffffffffffffffffffffffffffffffffff1673ffffffffffffffffffffffffffffffffffffffff16815260200190815260200160002060070160009054906101000a900473ffffffffffffffffffffffffffffffffffffffff1673ffffffffffffffffffffffffffffffffffffffff161461338d576040517f08c379a00000000000000000000000000000000000000000000000000000000081526004016133849061548c565b60405180910390fd5b600061339882613b64565b905080600760003373ffffffffffffffffffffffffffffffffffffffff1673ffffffffffffffffffffffffffffffffffffffff1681526020019081526020016000206000820151816000015560208201518160010155604082015181600201908051906020019061340a929190614485565b506060820151816003019080519060200190613427929190614485565b506080820151816004019080519060200190613444929190614485565b5060a08201518160050160006101000a8154816fffffffffffffffffffffffffffffffff02191690836fffffffffffffffffffffffffffffffff16021790555060c08201518160060160006101000a81548173ffffffffffffffffffffffffffffffffffffffff021916908373ffffffffffffffffffffffffffffffffffffffff16021790555060e08201518160070160006101000a81548173ffffffffffffffffffffffffffffffffffffffff021916908373ffffffffffffffffffffffffffffffffffffffff16021790555061010082015181600801556101208201518160090160006101000a8154816fffffffffffffffffffffffffffffffff02191690836fffffffffffffffffffffffffffffffff16021790555061014082015181600a015561016082015181600b0160006101000a81548160ff02191690836005811115613594576135936147f4565b5b02179055509050503373ffffffffffffffffffffffffffffffffffffffff168160c0015173ffffffffffffffffffffffffffffffffffffffff167fa5a1e4c8dd972cb9a84cf75f55d183b5fddd749c14fc7d8b9e922270b05fc4ce83600001514260405161360392919061513c565b60405180910390a350600160008190555050565b61361f61369b565b600073ffffffffffffffffffffffffffffffffffffffff168173ffffffffffffffffffffffffffffffffffffffff16141561368f576040517f08c379a00000000000000000000000000000000000000000000000000000000081526004016136869061551e565b60405180910390fd5b61369881613a90565b50565b6136a361418f565b73ffffffffffffffffffffffffffffffffffffffff166136c16125bd565b73ffffffffffffffffffffffffffffffffffffffff1614613717576040517f08c379a000000000000000000000000000000000000000000000000000000000815260040161370e9061558a565b60405180910390fd5b565b6000816101f4600161372b91906155d9565b613735919061560a565b9050919050565b600061374787613719565b87613752919061507a565b90506006604051806101800160405280838152602001888152602001878152602001868152602001858152602001846fffffffffffffffffffffffffffffffff1681526020013373ffffffffffffffffffffffffffffffffffffffff168152602001600073ffffffffffffffffffffffffffffffffffffffff1681526020016137d9614197565b815260200160006fffffffffffffffffffffffffffffffff16815260200142815260200160006005811115613811576138106147f4565b5b81525090806001815401808255809150506001900390600052602060002090600c02016000909190919091506000820151816000015560208201518160010155604082015181600201908051906020019061386d929190614485565b50606082015181600301908051906020019061388a929190614485565b5060808201518160040190805190602001906138a7929190614485565b5060a08201518160050160006101000a8154816fffffffffffffffffffffffffffffffff02191690836fffffffffffffffffffffffffffffffff16021790555060c08201518160060160006101000a81548173ffffffffffffffffffffffffffffffffffffffff021916908373ffffffffffffffffffffffffffffffffffffffff16021790555060e08201518160070160006101000a81548173ffffffffffffffffffffffffffffffffffffffff021916908373ffffffffffffffffffffffffffffffffffffffff16021790555061010082015181600801556101208201518160090160006101000a8154816fffffffffffffffffffffffffffffffff02191690836fffffffffffffffffffffffffffffffff16021790555061014082015181600a015561016082015181600b0160006101000a81548160ff021916908360058111156139f7576139f66147f4565b5b0217905550505050505050505050565b613a8a846323b872dd60e01b858585604051602401613a2893929190615664565b604051602081830303815290604052907bffffffffffffffffffffffffffffffffffffffffffffffffffffffff19166020820180517bffffffffffffffffffffffffffffffffffffffffffffffffffffffff83818316178352505050506141b2565b50505050565b6000600160009054906101000a900473ffffffffffffffffffffffffffffffffffffffff16905081600160006101000a81548173ffffffffffffffffffffffffffffffffffffffff021916908373ffffffffffffffffffffffffffffffffffffffff1602179055508173ffffffffffffffffffffffffffffffffffffffff168173ffffffffffffffffffffffffffffffffffffffff167f8be0079c531659141344cd1fd0a4f28419497f9722a3daafe3b4186f6b6457e060405160405180910390a35050565b600081600001549050919050565b613b6c61450b565b60006006805480602002602001604051908101604052809291908181526020016000905b82821015613f1c57838290600052602060002090600c0201604051806101800160405290816000820154815260200160018201548152602001600282018054613bd890614fea565b80601f0160208091040260200160405190810160405280929190818152602001828054613c0490614fea565b8015613c515780601f10613c2657610100808354040283529160200191613c51565b820191906000526020600020905b815481529060010190602001808311613c3457829003601f168201915b50505050508152602001600382018054613c6a90614fea565b80601f0160208091040260200160405190810160405280929190818152602001828054613c9690614fea565b8015613ce35780601f10613cb857610100808354040283529160200191613ce3565b820191906000526020600020905b815481529060010190602001808311613cc657829003601f168201915b50505050508152602001600482018054613cfc90614fea565b80601f0160208091040260200160405190810160405280929190818152602001828054613d2890614fea565b8015613d755780601f10613d4a57610100808354040283529160200191613d75565b820191906000526020600020905b815481529060010190602001808311613d5857829003601f168201915b505050505081526020016005820160009054906101000a90046fffffffffffffffffffffffffffffffff166fffffffffffffffffffffffffffffffff166fffffffffffffffffffffffffffffffff1681526020016006820160009054906101000a900473ffffffffffffffffffffffffffffffffffffffff1673ffffffffffffffffffffffffffffffffffffffff1673ffffffffffffffffffffffffffffffffffffffff1681526020016007820160009054906101000a900473ffffffffffffffffffffffffffffffffffffffff1673ffffffffffffffffffffffffffffffffffffffff1673ffffffffffffffffffffffffffffffffffffffff168152602001600882015481526020016009820160009054906101000a90046fffffffffffffffffffffffffffffffff166fffffffffffffffffffffffffffffffff166fffffffffffffffffffffffffffffffff168152602001600a8201548152602001600b820160009054906101000a900460ff166005811115613ef757613ef66147f4565b5b6005811115613f0957613f086147f4565b5b8152505081526020019060010190613b90565b50505050905060005b815181101561414e5783828281518110613f4257613f4161501c565b5b60200260200101516101000151141561413b57600073ffffffffffffffffffffffffffffffffffffffff1660068281548110613f8157613f8061501c565b5b90600052602060002090600c020160070160009054906101000a900473ffffffffffffffffffffffffffffffffffffffff1673ffffffffffffffffffffffffffffffffffffffff1614614009576040517f08c379a00000000000000000000000000000000000000000000000000000000081526004016140009061570d565b60405180910390fd5b336006828154811061401e5761401d61501c565b5b90600052602060002090600c020160070160006101000a81548173ffffffffffffffffffffffffffffffffffffffff021916908373ffffffffffffffffffffffffffffffffffffffff1602179055506001600682815481106140835761408261501c565b5b90600052602060002090600c0201600b0160006101000a81548160ff021916908360058111156140b6576140b56147f4565b5b021790555042600682815481106140d0576140cf61501c565b5b90600052602060002090600c020160090160006101000a8154816fffffffffffffffffffffffffffffffff02191690836fffffffffffffffffffffffffffffffff16021790555081818151811061412a5761412961501c565b5b60200260200101519250505061418a565b808061414690615165565b915050613f25565b506040517f08c379a000000000000000000000000000000000000000000000000000000000815260040161418190615779565b60405180910390fd5b919050565b600033905090565b60006141a36002614279565b6141ad6002613b56565b905090565b6000614214826040518060400160405280602081526020017f5361666545524332303a206c6f772d6c6576656c2063616c6c206661696c65648152508573ffffffffffffffffffffffffffffffffffffffff1661428f9092919063ffffffff16565b90506000815111156142745780806020019051810190614234919061510f565b614273576040517f08c379a000000000000000000000000000000000000000000000000000000000815260040161426a9061580b565b60405180910390fd5b5b505050565b6001816000016000828254019250508190555050565b606061429e84846000856142a7565b90509392505050565b6060824710156142ec576040517f08c379a00000000000000000000000000000000000000000000000000000000081526004016142e39061589d565b60405180910390fd5b6142f5856143bb565b614334576040517f08c379a000000000000000000000000000000000000000000000000000000000815260040161432b90615909565b60405180910390fd5b6000808673ffffffffffffffffffffffffffffffffffffffff16858760405161435d9190615970565b60006040518083038185875af1925050503d806000811461439a576040519150601f19603f3d011682016040523d82523d6000602084013e61439f565b606091505b50915091506143af8282866143de565b92505050949350505050565b6000808273ffffffffffffffffffffffffffffffffffffffff163b119050919050565b606083156143ee5782905061443e565b6000835111156144015782518084602001fd5b816040517f08c379a00000000000000000000000000000000000000000000000000000000081526004016144359190615987565b60405180910390fd5b9392505050565b50805461445190614fea565b6000825580601f106144635750614482565b601f01602090049060005260206000209081019061448191906145ce565b5b50565b82805461449190614fea565b90600052602060002090601f0160209004810192826144b357600085556144fa565b82601f106144cc57805160ff19168380011785556144fa565b828001600101855582156144fa579182015b828111156144f95782518255916020019190600101906144de565b5b50905061450791906145ce565b5090565b604051806101800160405280600081526020016000815260200160608152602001606081526020016060815260200160006fffffffffffffffffffffffffffffffff168152602001600073ffffffffffffffffffffffffffffffffffffffff168152602001600073ffffffffffffffffffffffffffffffffffffffff1681526020016000815260200160006fffffffffffffffffffffffffffffffff16815260200160008152602001600060058111156145c8576145c76147f4565b5b81525090565b5b808211156145e75760008160009055506001016145cf565b5090565b6000604051905090565b600080fd5b600080fd5b600073ffffffffffffffffffffffffffffffffffffffff82169050919050565b600061462a826145ff565b9050919050565b61463a8161461f565b811461464557600080fd5b50565b60008135905061465781614631565b92915050565b6000819050919050565b6146708161465d565b811461467b57600080fd5b50565b60008135905061468d81614667565b92915050565b600080604083850312156146aa576146a96145f5565b5b60006146b885828601614648565b92505060206146c98582860161467e565b9150509250929050565b6000602082840312156146e9576146e86145f5565b5b60006146f78482850161467e565b91505092915050565b6147098161465d565b82525050565b600081519050919050565b600082825260208201905092915050565b60005b8381101561474957808201518184015260208101905061472e565b83811115614758576000848401525b50505050565b6000601f19601f8301169050919050565b600061477a8261470f565b614784818561471a565b935061479481856020860161472b565b61479d8161475e565b840191505092915050565b60006fffffffffffffffffffffffffffffffff82169050919050565b6147cd816147a8565b82525050565b60006147de826145ff565b9050919050565b6147ee816147d3565b82525050565b7f4e487b7100000000000000000000000000000000000000000000000000000000600052602160045260246000fd5b60068110614834576148336147f4565b5b50565b600081905061484582614823565b919050565b600061485582614837565b9050919050565b6148658161484a565b82525050565b600061018082019050614881600083018f614700565b61488e602083018e614700565b81810360408301526148a0818d61476f565b905081810360608301526148b4818c61476f565b905081810360808301526148c8818b61476f565b90506148d760a083018a6147c4565b6148e460c08301896147e5565b6148f160e08301886147e5565b6148ff610100830187614700565b61490d6101208301866147c4565b61491b610140830185614700565b61492961016083018461485c565b9d9c50505050505050505050505050565b60006149458261461f565b9050919050565b6149558161493a565b811461496057600080fd5b50565b6000813590506149728161494c565b92915050565b60006020828403121561498e5761498d6145f5565b5b600061499c84828501614963565b91505092915050565b600080fd5b600080fd5b7f4e487b7100000000000000000000000000000000000000000000000000000000600052604160045260246000fd5b6149e78261475e565b810181811067ffffffffffffffff82111715614a0657614a056149af565b5b80604052505050565b6000614a196145eb565b9050614a2582826149de565b919050565b600067ffffffffffffffff821115614a4557614a446149af565b5b614a4e8261475e565b9050602081019050919050565b82818337600083830152505050565b6000614a7d614a7884614a2a565b614a0f565b905082815260208101848484011115614a9957614a986149aa565b5b614aa4848285614a5b565b509392505050565b600082601f830112614ac157614ac06149a5565b5b8135614ad1848260208601614a6a565b91505092915050565b614ae3816147a8565b8114614aee57600080fd5b50565b600081359050614b0081614ada565b92915050565b60008060008060008060c08789031215614b2357614b226145f5565b5b6000614b3189828a0161467e565b9650506020614b4289828a0161467e565b955050604087013567ffffffffffffffff811115614b6357614b626145fa565b5b614b6f89828a01614aac565b945050606087013567ffffffffffffffff811115614b9057614b8f6145fa565b5b614b9c89828a01614aac565b935050608087013567ffffffffffffffff811115614bbd57614bbc6145fa565b5b614bc989828a01614aac565b92505060a0614bda89828a01614af1565b9150509295509295509295565b6000819050919050565b6000614c0c614c07614c02846145ff565b614be7565b6145ff565b9050919050565b6000614c1e82614bf1565b9050919050565b6000614c3082614c13565b9050919050565b614c4081614c25565b82525050565b6000602082019050614c5b6000830184614c37565b92915050565b614c6a8161461f565b82525050565b6000602082019050614c856000830184614c61565b92915050565b600060208284031215614ca157614ca06145f5565b5b6000614caf84828501614648565b91505092915050565b6000602082019050614ccd6000830184614700565b92915050565b600081519050919050565b600082825260208201905092915050565b6000819050602082019050919050565b614d088161465d565b82525050565b600082825260208201905092915050565b6000614d2a8261470f565b614d348185614d0e565b9350614d4481856020860161472b565b614d4d8161475e565b840191505092915050565b614d61816147a8565b82525050565b614d70816147d3565b82525050565b614d7f8161484a565b82525050565b600061018083016000830151614d9e6000860182614cff565b506020830151614db16020860182614cff565b5060408301518482036040860152614dc98282614d1f565b91505060608301518482036060860152614de38282614d1f565b91505060808301518482036080860152614dfd8282614d1f565b91505060a0830151614e1260a0860182614d58565b5060c0830151614e2560c0860182614d67565b5060e0830151614e3860e0860182614d67565b50610100830151614e4d610100860182614cff565b50610120830151614e62610120860182614d58565b50610140830151614e77610140860182614cff565b50610160830151614e8c610160860182614d76565b508091505092915050565b6000614ea38383614d85565b905092915050565b6000602082019050919050565b6000614ec382614cd3565b614ecd8185614cde565b935083602082028501614edf85614cef565b8060005b85811015614f1b5784840389528151614efc8582614e97565b9450614f0783614eab565b925060208a01995050600181019050614ee3565b50829750879550505050505092915050565b60006020820190508181036000830152614f478184614eb8565b905092915050565b7f5265656e7472616e637947756172643a207265656e7472616e742063616c6c00600082015250565b6000614f85601f8361471a565b9150614f9082614f4f565b602082019050919050565b60006020820190508181036000830152614fb481614f78565b9050919050565b7f4e487b7100000000000000000000000000000000000000000000000000000000600052602260045260246000fd5b6000600282049050600182168061500257607f821691505b6020821081141561501657615015614fbb565b5b50919050565b7f4e487b7100000000000000000000000000000000000000000000000000000000600052603260045260246000fd5b7f4e487b7100000000000000000000000000000000000000000000000000000000600052601160045260246000fd5b60006150858261465d565b91506150908361465d565b9250828210156150a3576150a261504b565b5b828203905092915050565b60006040820190506150c36000830185614c61565b6150d06020830184614700565b9392505050565b60008115159050919050565b6150ec816150d7565b81146150f757600080fd5b50565b600081519050615109816150e3565b92915050565b600060208284031215615125576151246145f5565b5b6000615133848285016150fa565b91505092915050565b60006040820190506151516000830185614700565b61515e6020830184614700565b9392505050565b60006151708261465d565b91507fffffffffffffffffffffffffffffffffffffffffffffffffffffffffffffffff8214156151a3576151a261504b565b5b600182019050919050565b7f524144454e553a20464f5242494444454e000000000000000000000000000000600082015250565b60006151e460118361471a565b91506151ef826151ae565b602082019050919050565b60006020820190508181036000830152615213816151d7565b9050919050565b60008151905061522981614667565b92915050565b600060208284031215615245576152446145f5565b5b60006152538482850161521a565b91505092915050565b60006152678261465d565b91506152728361465d565b9250827fffffffffffffffffffffffffffffffffffffffffffffffffffffffffffffffff038211156152a7576152a661504b565b5b828201905092915050565b7f43616e6e6f742073656e64206c657373207468616e2031300000000000000000600082015250565b60006152e860188361471a565b91506152f3826152b2565b602082019050919050565b60006020820190508181036000830152615317816152db565b9050919050565b7f524144454e553a20496e73756666696369656e7420616d6f756e740000000000600082015250565b6000615354601b8361471a565b915061535f8261531e565b602082019050919050565b6000602082019050818103600083015261538381615347565b9050919050565b600061539582614c13565b9050919050565b6153a58161538a565b82525050565b60006040820190506153c0600083018561539c565b6153cd6020830184614700565b9392505050565b7f524144454e553a464f5242494444454e00000000000000000000000000000000600082015250565b600061540a60108361471a565b9150615415826153d4565b602082019050919050565b60006020820190508181036000830152615439816153fd565b9050919050565b7f464f52424944454e3a2050656e64696e67206f72646572000000000000000000600082015250565b600061547660178361471a565b915061548182615440565b602082019050919050565b600060208201905081810360008301526154a581615469565b9050919050565b7f4f776e61626c653a206e6577206f776e657220697320746865207a65726f206160008201527f6464726573730000000000000000000000000000000000000000000000000000602082015250565b600061550860268361471a565b9150615513826154ac565b604082019050919050565b60006020820190508181036000830152615537816154fb565b9050919050565b7f4f776e61626c653a2063616c6c6572206973206e6f7420746865206f776e6572600082015250565b600061557460208361471a565b915061557f8261553e565b602082019050919050565b600060208201905081810360008301526155a381615567565b9050919050565b7f4e487b7100000000000000000000000000000000000000000000000000000000600052601260045260246000fd5b60006155e48261465d565b91506155ef8361465d565b9250826155ff576155fe6155aa565b5b828204905092915050565b60006156158261465d565b91506156208361465d565b9250817fffffffffffffffffffffffffffffffffffffffffffffffffffffffffffffffff04831182151516156156595761565861504b565b5b828202905092915050565b60006060820190506156796000830186614c61565b6156866020830185614c61565b6156936040830184614700565b949350505050565b7f464f5242494444454e3a204f7264657220416363657074656420627920536f6d60008201527f656f6e6520456c73650000000000000000000000000000000000000000000000602082015250565b60006156f760298361471a565b91506157028261569b565b604082019050919050565b60006020820190508181036000830152615726816156ea565b9050919050565b7f4e6f7420666f756e640000000000000000000000000000000000000000000000600082015250565b600061576360098361471a565b915061576e8261572d565b602082019050919050565b6000602082019050818103600083015261579281615756565b9050919050565b7f5361666545524332303a204552433230206f7065726174696f6e20646964206e60008201527f6f74207375636365656400000000000000000000000000000000000000000000602082015250565b60006157f5602a8361471a565b915061580082615799565b604082019050919050565b60006020820190508181036000830152615824816157e8565b9050919050565b7f416464726573733a20696e73756666696369656e742062616c616e636520666f60008201527f722063616c6c0000000000000000000000000000000000000000000000000000602082015250565b600061588760268361471a565b91506158928261582b565b604082019050919050565b600060208201905081810360008301526158b68161587a565b9050919050565b7f416464726573733a2063616c6c20746f206e6f6e2d636f6e7472616374000000600082015250565b60006158f3601d8361471a565b91506158fe826158bd565b602082019050919050565b60006020820190508181036000830152615922816158e6565b9050919050565b600081519050919050565b600081905092915050565b600061594a82615929565b6159548185615934565b935061596481856020860161472b565b80840191505092915050565b600061597c828461593f565b915081905092915050565b600060208201905081810360008301526159a1818461476f565b90509291505056fea26469706673582212204a2467b3e9d09aabddcef7ec3befabae733a465531d18d02caeae81837e43a8264736f6c63430008090033",
  "linkReferences": {},
  "deployedLinkReferences": {}
}